:100000000C946E000C94EC070C9419080C94960058
:100010000C9496000C9496000C9496000C94960008
:100020000C9496000C9496000C9496000C949600F8
:100030000C9496000C9496000C9496000C949600E8
:100040000C9446080C9496000C94510B0C94830B62
:100050000C9496000C9496000C9496000C949600C8
:100060000C94F30E0C9496000004060410041E0475
:100070002004260430043E0450045204000000080A
:10008000000201000003040700000000000000005F
:10009000010204081020408001020408102001021F
:1000A00004081020040404040404040402020202EC
:1000B00002020303030303030000000023002600E1
:1000C000290000000000250028002B00000000008F
:1000D000240027002A00AD07B30BC60E11241FBE53
:1000E000CFEFD8E0DEBFCDBF12E0A0E0B1E0E2E6A6
:1000F000F5E202C005900D92A034B107D9F723E0D4
:10010000A0E4B2E001C01D92A83FB207E1F710E001
:10011000CCEDD0E004C02297FE010E94AB12C63D98
:10012000D107C9F70E94A0070C94AF120C940000ED
:10013000FC0166834783208781E085870895CF93FC
:10014000DF93EC0160E08E810E94720961E08E8194
:100150000E94AB0919861A861B861C86DF91CF91F7
:1001600008954F925F926F927F928F929F92AF927B
:10017000BF92CF92DF92EF92FF920F931F93CF9394
:10018000DF93CDB7DEB728970FB6F894DEBF0FBE6A
:10019000CDBF6A017B01480159019A01AB01C7013A
:1001A000B6010E94D9112B013C01A5019401C501A2
:1001B000B4010E94D9116D837E838F83988721E1DA
:1001C00033E243E050E4C701B6010E94D91129E1AE
:1001D00034E849E252E40E94211069837A838B83D8
:1001E0009C8326E13BE442E251E4C501B4010E9454
:1001F000D9119B01AC0169817A818B819C810E941C
:10020000221069837A838B839C8328E436E246E656
:100210005EEBC701B6010E94D911A50194010E94AD
:10022000D9119B01AC0169817A818B819C810E94EB
:10023000221069837A838B839C8320EE3FE040EE1B
:100240005BEBC301B2010E94D9119B01AC01698132
:100250007A818B819C810E94221069837A838B83AF
:100260009C8328EF37E840E65DEB6D817E818F81CE
:1002700098850E94D9119B01AC0169817A818B819B
:100280009C810E94221069837A838B839C832CEA51
:100290003DE041EA5AE3C301B2010E94D911A50130
:1002A00094010E94D9119B01AC0169817A818B81F3
:1002B0009C810E9422104B015C0128EC3FE84FE535
:1002C0005AE3C701B6010E94D9112D813E814F81A9
:1002D00058850E94D9119B01AC01C501B4010E944F
:1002E00022106B017C0121EF3BE845E056EBC30196
:1002F000B2010E94D9112D813E814F8158850E9403
:10030000D9119B01AC01C701B6010E9422102896A9
:100310000FB6F894DEBF0FBECDBFDF91CF911F9116
:100320000F91FF90EF90DF90CF90BF90AF909F9094
:100330008F907F906F905F904F900895DF92EF9233
:10034000FF920F931F93CF93DF93EC010E949008CD
:1003500009851A852B853C856017710782079307ED
:1003600020F419861A861B861C862D85211111C042
:1003700009851A852B853C85DC01CB01801B910BFF
:10038000A20BB30B803D9740A105B10510F481E0AD
:100390007BC01D860E94900869877A878B879C871F
:1003A0001C821B821A821982188261E08E810E944F
:1003B000AB096AEF70E080E090E00E94BF0861E066
:1003C0008E810E94720960E08E810E94AB0964E117
:1003D00070E080E090E00E94BF08F89461E08E81B8
:1003E0000E94AB0988E290E00E94E70860E08E81FD
:1003F0000E947209F12CD12C81E0E12C082F10E031
:100400008E810E94E1098017910741F4E39481E015
:1004100090E00E94E7088FEFE812F2CF8E810E94F1
:10042000E1099FEFE916C9F023E02F1590F4F0FCE5
:1004300010C09D2D969596959695FE01E90FF11D9C
:100440009081990F908328852E1510F491609083E8
:10045000D394F39495E5F912D0CF789427E22D1533
:1004600090F42C8130E04881898190E0840F911DC7
:100470004A81840F911D4B81840F911D9927281764
:10048000390709F484CF80E0DF91CF911F910F915C
:10049000FF90EF90DF900895CF92DF92EF92FF925E
:1004A0000F931F93CF93DF93EC01162F0E949E01B1
:1004B000882309F450C08F818B3031F008F44BC091
:1004C0008551823078F047C06A8170E080E090E02A
:1004D0000E942311112309F443C020E030E040E1E1
:1004E00051E42AC00A81602F6F7770E080E090E0CD
:1004F0000E94251120E030E040E853E40E94D91129
:100500006B017C016B8170E080E090E00E9425111E
:100510009B01AC01C701B6010E94221020E030E02F
:1005200040E251E40E948A1007FD90581123D9F04F
:1005300020E030E040E151E40E94D91120E030E0B9
:1005400040EA50E40E948A1020E030E040E052E4AB
:100550000E94221008C020E030E040EC5FE705C0B8
:100560009B01AC0102C09B01AC01B901CA01DF9142
:10057000CF911F910F91FF90EF90DF90CF90089552
:10058000CF92DF92EF92FF92CF93DF93EC010E9424
:100590009E01882379F18F818B3029F158F18551A3
:1005A000823040F5688170E080E090E00E94231185
:1005B00020E030E040E853E40E94D9116B017C0157
:1005C000698170E080E090E00E9425119B01AC0100
:1005D000C701B6010E94221020E030E040E251E461
:1005E0000E948A100BC0688170E080E090E00E9459
:1005F000231104C060E070E080EC9FE7DF91CF91B1
:10060000FF90EF90DF90CF900895CF92DF92EF921E
:10061000FF921F93CF93DF93D82F162F56954795B0
:100620006A01E12CF12CC0E0C11791F061E08D2F3F
:100630000E94AB09C701B6010E94BF0860E08D2F80
:100640000E94AB09C701B6010E94BF08CF5FECCF83
:10065000DF91CF911F91FF90EF90DF90CF900895A1
:10066000EF92FF920F931F93CF93DF93EC01842FB0
:100670001D861C861B821A8219821882188E198E7A
:100680001A8E1B8E798768874E875F87398B288BF8
:100690001B8B0A8BFD8AEC8A61E00E94720961E083
:1006A00088890E94720961E08A890E94720961E06A
:1006B0008C890E9472091F8A1E8A84E090E09B87C1
:1006C0008A87DF91CF911F910F91FF90EF9008954E
:1006D000CF92DF92EF92FF92CF93DF93EC016A010A
:1006E0007B0128853985442737FD4095542F60E0EC
:1006F00077E883E993E00E948A12CA01B901A70151
:1007000096010E948A122C833D834E835F83DF9182
:10071000CF91FF90EF90DF90CF9008950F931F93AC
:10072000CF93DF93EC018B018A859B850297F9F4C7
:100730006130710571F02CF461157105C1F460E050
:1007400009C06230710559F06330710581F460E0D1
:1007500007C061E08E850E94AB0961E005C061E0E1
:100760008E850E94AB0960E088890E94AB098A856A
:100770009B850497B9F501301105B1F04CF40115D2
:10078000110581F561E08E850E94AB0960E011C022
:1007900002301105B9F00330110521F561E08E85B5
:1007A0000E94AB0960E013C060E08E850E94AB0937
:1007B00061E088890E94AB0961E08A890E94AB09E7
:1007C00060E00DC060E08E850E94AB0961E0888921
:1007D0000E94AB0960E08A890E94AB0961E08C89C4
:1007E0000E94AB098A859B85059709F073C00A3082
:1007F000110508F06FC0F801EC5CFF4F0C94A912D2
:1008000060E08E850E94AB0961E051C060E08E859A
:100810000E94AB0961E088890E94AB0960E04BC08F
:1008200060E08E850E94AB0961E088890E94AB0977
:1008300060E08A890E94AB0961E041C060E001C0CC
:1008400061E08E850E94AB0961E005C061E08E85A4
:100850000E94AB0960E088890E94AB0960E009C092
:1008600061E08E850E94AB0960E088890E94AB0937
:1008700061E08A890E94AB0961E00DC061E08E856C
:100880000E94AB0960E088890E94AB0961E08A8917
:100890000E94AB0960E08C890E94AB0960E013C044
:1008A00061E001C060E08E850E94AB0960E088894C
:1008B0000E94AB0961E08A890E94AB0960E08C89E3
:1008C0000E94AB0961E08E89DF91CF911F910F915A
:1008D0000C94AB09DF91CF911F910F9108954F9226
:1008E0005F926F927F928F929F92AF92BF92CF92C0
:1008F000DF92EF92FF920F931F93CF93DF93EC0160
:10090000CB0177FF04C088279927861B970B6C01C2
:10091000161617062CF481E090E09983888304C0B2
:10092000672B11F01982188204E010E08AE0E82EAB
:10093000F12CC114D10409F44AC00E949C08888C8F
:10094000998CAA8CBB8C2B013C01481859086A0869
:100950007B088C809D80AE80BF80481459046A0457
:100960007B0458F3688F798F8A8F9B8F2881398118
:100970008C859D852130310559F401969D878C87A2
:10098000288539858217930771F41D861C860BC054
:10099000892B21F4888599859D878C878C859D85F9
:1009A00001979D878C8781E0C81AD1082A853B85ED
:1009B0008C859D852530310511F4B70101C0B80142
:1009C0000E945412BC01CE010E948E03B2CFDF916F
:1009D000CF911F910F91FF90EF90DF90CF90BF903C
:1009E000AF909F908F907F906F905F904F90089501
:1009F00060E171E08CE992E00C94510C6FE271E0DF
:100A00008CE992E00C94510C0F931F9380918E020D
:100A10000E942C09BC01882777FD8095982F0E94A1
:100A2000251120910B0130910C0140910D01509145
:100A30000E010E94D91120918302309184024091CD
:100A40008502509186020E9421100E94F210882790
:100A500077FD8095982F0E942511209107013091F4
:100A600008014091090150910A010E948A100E94D8
:100A7000F21070938802609387026AE471E08CE957
:100A800092E00E94340C60918702709188024AE0E3
:100A900050E08CE992E00E94060D109288021092BC
:100AA00087021AE080918E020E942C09BC018827DF
:100AB00077FD8095982F0E94251120910B01309190
:100AC0000C0140910D0150910E010E94D91120910D
:100AD00083023091840240918502509186020E94E7
:100AE0002110209107013091080140910901509196
:100AF0000A010E948A100E94F21020918702309110
:100B00008802260F371F30938802209387026AE0FD
:100B100070E080E090E00E94BF08115019F68091CB
:100B20008702909188026AE070E00E9454127093EC
:100B3000880260938702E0916E02F0E0EE0FFF1FE3
:100B4000E159FD4F7183608300916A0210916B023D
:100B500020916C0230916D02EFE6F2E061917191AB
:100B6000882777FD8095982F600F711F821F931F34
:100B700022E0E338F20719F08B019C01EFCF2AE065
:100B800030E040E050E00E948A1220936A023093E5
:100B90006B0240936C0250936D026EE571E08CE93C
:100BA00092E00E94340C40916A0250916B02609175
:100BB0006C0270916D022AE030E08CE992E00E94B4
:100BC0001E0D80916E02893020F48F5F80936E023B
:100BD00002C010926E0268EE73E080E090E01F9118
:100BE0000F910C94BF0866E871E08CE992E00E94D6
:100BF000510C6091060170E08EE492E00E946F0457
:100C000064EF71E080E090E00E94BF086FE771E060
:100C10008CE992E00E94510C6091060170E07195A0
:100C2000619571098EE492E00E946F0464EF71E0B7
:100C300080E090E00C94BF084F925F926F927F9299
:100C40008F929F92AF92BF92CF92DF92EF92FF92DC
:100C50000F931F9360ED77E080E090E00E94BF0863
:100C600080E492E00E94C0026B017C0160E080E4BD
:100C700092E00E944C024B015C0161E080E492E052
:100C80000E944C022B013C01A7019601C701B6014D
:100C90000E943C12811110C0A5019401C501B4014C
:100CA0000E943C12811108C0A3019201C301B2014C
:100CB0000E943C12882319F060E971E050C097014E
:100CC0008601B301A20180E492E00E94B1002B01F1
:100CD0003C0160EB71E08CE992E00E94340C22E070
:100CE00030E0B701A6018CE992E00E941B0E6BEC8C
:100CF00071E08CE992E00E94340C6BEB71E08CE9BE
:100D000092E00E94340C22E030E0B501A4018CE9AD
:100D100092E00E941B0E69EC71E08CE992E00E9467
:100D2000340C6FEC71E08CE992E00E94340C20E00E
:100D300030E040E052E4C301B2010E94211026E6F7
:100D400036E646EE5FE30E948A10AB01BC0122E06A
:100D500030E08CE992E00E941B0E6CED71E08CE9B2
:100D600092E01F910F91FF90EF90DF90CF90BF9096
:100D7000AF909F908F907F906F905F904F900C946A
:100D8000510CCF92DF92EF92FF92CF9326E040E892
:100D900055E260E070E08CE992E00E94EF0A6FEDAE
:100DA00071E08CE992E00E94510C8EE080938E02FB
:100DB00082E080938A0283E080938B0285E08093B7
:100DC0008D0286E080938C028DE08093890262E040
:100DD00082E00E94720962E080918B020E94720997
:100DE00061E080918D020E94720961E080918C0225
:100DF0000E94720961E0809189020E94720943E0B9
:100E000050E06EEF74E080918A020E94CC0743E0CC
:100E100050E068EF74E080918B020E94CC074CE3B5
:100E200050E060E070E08EE492E00E94680380E4AD
:100E300092E00E949F0060E080918D020E94AB09C9
:100E400060E080918C020E94AB0961E080918D028C
:100E50000E94AB0961E080918C020E94AB0944EFD3
:100E600051E065E0809189020E940503CAEFC090BD
:100E70008302D0908402E0908502F09086028091F7
:100E80008E020E942C09BC01882777FD8095982F3F
:100E90000E94251120910B0130910C0140910D0110
:100EA00050910E010E94D91120E030E04AE753E44E
:100EB0000E948A109B01AC01C701B6010E9422105A
:100EC00060938302709384028093850290938602DC
:100ED0006AE070E080E090E00E94BF08C15039F6FF
:100EE00044EF51E065E0809189020E9405036AEFBA
:100EF00071E08CE992E00E94340C409183025091A1
:100F00008402609185027091860222E030E08CE9D3
:100F100092E00E941D0E60E080918D020E94AB095C
:100F200060E080918C02CF91FF90EF90DF90CF90A6
:100F30000C94AB090E9404050E94F3050C941C0656
:100F40000E94F1080E94C106C9E3DAE00E949A07F4
:100F50002097E1F30E94390AF9CFEF92FF920F93A5
:100F60001F936091060170E05BE0E52EF12C0AE032
:100F700010E029E030E048E050E08EE492E00E948A
:100F8000300326E04BE067E080E492E01F910F9190
:100F9000FF90EF900C9498008230E8F4E82FF0E096
:100FA000EE0FFF1FE157FD4F71836083813041F0E9
:100FB000809169008C7F842B80936900E89A089562
:100FC00080916900440F551F440F551F837F842B68
:100FD00080936900E99A08951F920F920FB60F92BD
:100FE00011242F933F934F935F936F937F938F932E
:100FF0009F93AF93BF93EF93FF9380918F02909154
:101000009002892B29F0E0918F02F09190020995CE
:10101000FF91EF91BF91AF919F918F917F916F91D0
:101020005F914F913F912F910F900FBE0F901F90A6
:1010300018951F920F920FB60F9211242F933F9382
:101040004F935F936F937F938F939F93AF93BF93D0
:10105000EF93FF938091910290919202892B29F056
:10106000E0919102F09192020995FF91EF91BF9169
:10107000AF919F918F917F916F915F914F913F9130
:101080002F910F900FBE0F901F9018951F920F92E7
:101090000FB60F9211242F933F938F939F93AF938B
:1010A000BF938091940290919502A0919602B09185
:1010B00097023091930223E0230F2D3720F40196FD
:1010C000A11DB11D05C026E8230F0296A11DB11D6B
:1010D000209393028093940290939502A09396029A
:1010E000B09397028091980290919902A0919A02F0
:1010F000B0919B020196A11DB11D8093980290931F
:101100009902A0939A02B0939B02BF91AF919F91D5
:101110008F913F912F910F900FBE0F901F901895B8
:101120002FB7F89460919402709195028091960285
:10113000909197022FBF08953FB7F894809198023D
:1011400090919902A0919A02B0919B0226B5A89B1A
:1011500005C02F3F19F00196A11DB11D3FBF6627A5
:10116000782F892F9A2F620F711D811D911D42E0EA
:10117000660F771F881F991F4A95D1F70895CF9260
:10118000DF92EF92FF92CF93DF936B017C010E947D
:101190009C08EB01C114D104E104F10489F00E9420
:1011A00020100E949C086C1B7D0B683E734090F3DE
:1011B00081E0C81AD108E108F108C851DC4FEACF34
:1011C000DF91CF91FF90EF90DF90CF90089501973E
:1011D00039F0880F991F880F991F02970197F1F72F
:1011E0000895789484B5826084BD84B5816084BD9F
:1011F00085B5826085BD85B5816085BDEEE6F0E090
:10120000808181608083E1E8F0E0108280818260EB
:101210008083808181608083E0E8F0E0808181606C
:101220008083E1EBF0E0808184608083E0EBF0E09C
:10123000808181608083EAE7F0E080818460808340
:1012400080818260808380818160808380818068EA
:1012500080831092C10008958E3008F08E50877000
:1012600020910F0190E4299F90011124822B8093FB
:101270007C0080917A00806480937A0080917A006B
:1012800086FDFCCF809178002091790090E0922B30
:101290000895833081F028F4813099F08230A1F0F4
:1012A00008958730A9F08830B9F08430D1F4809166
:1012B00080008F7D03C0809180008F7780938000B5
:1012C000089584B58F7702C084B58F7D84BD08955D
:1012D0008091B0008F7703C08091B0008F7D8093A4
:1012E000B0000895CF93DF9390E0FC01E057FF4FEB
:1012F0002491FC01EC55FF4F8491882349F190E043
:10130000880F991FFC01E453FF4FA591B4918E53B0
:101310009F4FFC01C591D4919FB7611108C0F8940B
:101320008C91209582238C93888182230AC062301D
:1013300051F4F8948C91322F309583238C938881CB
:10134000822B888304C0F8948C91822B8C939FBF4E
:10135000DF91CF9108950F931F93CF93DF931F9247
:10136000CDB7DEB7282F30E0F901E458FF4F849164
:10137000F901E057FF4F1491F901EC55FF4F04912B
:101380000023C9F0882321F069830E9449096981FB
:10139000E02FF0E0EE0FFF1FEE53FF4FA591B49149
:1013A0009FB7F8948C91611103C01095812301C0FF
:1013B000812B8C939FBF0F90DF91CF911F910F9145
:1013C0000895CF93DF93282F30E0F901E458FF4FC1
:1013D0008491F901E057FF4FD491F901EC55FF4F8B
:1013E000C491CC2391F081110E944909EC2FF0E0C7
:1013F000EE0FFF1FE854FF4FA591B4912C912D23C0
:1014000081E090E021F480E002C080E090E0DF9194
:10141000CF910895FC01818D228D90E0805C9F4FDB
:10142000821B910960E470E00E9454120895FC014F
:10143000918D828D981731F0828DE80FF11D858D89
:1014400090E008958FEF9FEF0895FC01918D828DBC
:10145000981761F0828DDF01A80FB11D5D968C9108
:10146000928D9F5F9F73928F90E008958FEF9FEF13
:10147000089589EA9BE0892B49F080E090E0892B70
:1014800029F00E94A90B81110C9400000895FC0121
:10149000848DDF01A80FB11DA35ABF4F2C91848DFD
:1014A00090E001968F739927848FA689B7892C9332
:1014B000A089B1898C9180648C93938D848D9813CD
:1014C00006C00288F389E02D80818F7D8083089596
:1014D000CF93DF93EC01888D8823C9F0EA89FB89DB
:1014E000808185FD05C0A889B9898C9186FD0FC0D2
:1014F0000FB607FCF5CF808185FFF2CFA889B989A7
:101500008C9185FFEDCFCE010E94470AE7CFDF9196
:10151000CF910895CF92DF92FF920F931F93CF93B5
:10152000DF931F92CDB7DEB76C01DC015B969C9117
:101530005B975C968C915C97981307C05096ED91E1
:10154000FC915197808185FD32C0F601038D10E03A
:101550000F5F1F4F0F731127F02EF601848DF812C5
:1015600011C00FB607FCF9CFD6015096ED91FC9152
:101570005197808185FFF1CFC60169830E94470A98
:101580006981EBCF838DE80FF11DE35AFF4F608334
:10159000D6015B960C935B975296ED91FC91539715
:1015A00080818062808381E058968C930DC0D60143
:1015B0005696ED91FC91579760835096ED91FC9172
:1015C000519780818064808381E090E00F90DF916B
:1015D000CF911F910F91FF90DF90CF900895BF9210
:1015E000CF92DF92EF92FF92CF93DF93EC016A01EB
:1015F0007B01B22EE889F98982E08083411581EE72
:10160000580761057105A1F060E079E08DE390E095
:10161000A70196010E946812215031094109510920
:101620005695479537952795211580E1380798F00D
:10163000E889F989108260E874E88EE190E0A701FA
:1016400096010E94681221503109410951095695AD
:10165000479537952795EC85FD853083EE85FF8589
:101660002083188EEC89FD89B082EA89FB8980810C
:1016700080618083EA89FB89808188608083EA8930
:10168000FB89808180688083EA89FB8980818F7DE6
:101690008083DF91CF91FF90EF90DF90CF90BF904C
:1016A00008951F920F920FB60F9211242F938F93CC
:1016B0009F93EF93FF93E091AC02F091AD02808194
:1016C000E091B202F091B30282FD12C0908180914C
:1016D000B5028F5F8F732091B602821751F0E091AF
:1016E000B502F0E0E456FD4F958F8093B50201C03E
:1016F0008081FF91EF919F918F912F910F900FBE5D
:101700000F901F9018951F920F920FB60F921124F1
:101710002F933F934F935F936F937F938F939F93F9
:10172000AF93BF93EF93FF938CE992E00E94470A37
:10173000FF91EF91BF91AF919F918F917F916F91A9
:101740005F914F913F912F910F900FBE0F901F907F
:1017500018958CE992E00E940A0A21E0892B09F48D
:1017600020E0822F089510929F0210929E0288EE30
:1017700093E0A0E0B0E08093A0029093A102A09338
:10178000A202B093A30285E192E090939D02809320
:101790009C0285EC90E09093A9028093A80284ECCF
:1017A00090E09093AB028093AA0280EC90E090933B
:1017B000AD028093AC0281EC90E09093AF028093F5
:1017C000AE0282EC90E09093B1028093B00286EC7E
:1017D00090E09093B3028093B2021092B5021092FF
:1017E000B6021092B7021092B8020895CF92DF921B
:1017F000EF92FF920F931F93CF93DF936C017A01C7
:10180000EB01E60EF71E00E010E0CE15DF0561F0FB
:101810006991D601ED91FC910190F081E02DC60116
:101820000995080F191FF1CFC801DF91CF911F91C2
:101830000F91FF90EF90DF90CF90089561157105A3
:1018400081F0DB010D900020E9F7AD014150510915
:10185000461B570BDC01ED91FC910280F381E02DDA
:10186000099480E090E008950C941E0CDC01ED9149
:10187000FC910190F081E02D09940F931F93CF9379
:10188000DF93EC016DE00E94360C8C016AE0CE0122
:101890000E94360C800F911FDF91CF911F910F9105
:1018A00008950F931F93CF93DF93EC010E941E0CBA
:1018B0008C01CE010E943D0C800F911FDF91CF91D2
:1018C0001F910F9108958F929F92AF92BF92CF92E6
:1018D000DF92EF92FF920F931F93CF93DF93CDB7D9
:1018E000DEB7A1970FB6F894DEBF0FBECDBF7C0167
:1018F000C42EE52FCB01D22E19A221E02D1510F018
:101900002AE0D22E8E010F5D1F4F8D2C912CA12C21
:10191000B12C6C2D7E2FA50194010E9468128C2D94
:10192000D29E80191124015011098A3014F4805D6F
:1019300001C0895CF80180832115310541055105FD
:1019400021F0C22EE32FCA01E4CFB801C7010E94E3
:101950001E0CA1960FB6F894DEBF0FBECDBFDF916F
:10196000CF911F910F91FF90EF90DF90CF90BF909C
:10197000AF909F908F900895CF92DF92EF92FF9259
:101980000F931F93CF93DF93EC016A017B01211525
:10199000310579F4E881F9810190F081E02D642F1F
:1019A000DF91CF911F910F91FF90EF90DF90CF903B
:1019B00009942A303105E9F477FF1AC06DE20E94DC
:1019C000360C8C0144275527BA014C195D096E0964
:1019D0007F092AE0CE010E94630C800F911FDF91E6
:1019E000CF911F910F91FF90EF90DF90CF900895CE
:1019F0002AE0B701A601CE01DF91CF911F910F918F
:101A0000FF90EF90DF90CF900C94630C0F931F9397
:101A1000CF93DF93EC019A01AB01662757FD6095E8
:101A2000762F0E94BC0C8C01CE010E943D0C800FD1
:101A3000911FDF91CF911F910F9108950F931F93E5
:101A4000CF93DF93EC010E94BC0C8C01CE010E946D
:101A50003D0C800F911FDF91CF911F910F91089541
:101A60004F925F926F927F928F929F92AF92BF92AE
:101A7000CF92DF92EF92FF920F931F93CF93DF935A
:101A8000EC016A017B01B22E9A01AB01C701B601DC
:101A90000E943C12882319F061E272E027C02601FF
:101AA0003701E89477F82FEF3FEF4FE75FE7C30187
:101AB000B2010E943C1281110DC02FEF3FEF4FE7A2
:101AC0005FE7C301B2010E94861018161CF465E29C
:101AD00072E00CC02FEF3FEF4FE75FE4C701B601A4
:101AE0000E94D5111816ACF469E272E0CE01DF91C4
:101AF000CF911F910F91FF90EF90DF90CF90BF900B
:101B0000AF909F908F907F906F905F904F900C94CC
:101B10001E0C2FEF3FEF4FE75FECC701B6010E94AD
:101B2000861087FDE1CF20E030E0A901C701B601B2
:101B30000E94861087FF0AC06DE2CE010E94360C1B
:101B40008C01F7FAF094F7F8F09402C000E010E08E
:101B5000A12C60E070E080E09FE3AB1441F020E056
:101B600030E040E251E40E948A10A394F6CF9B013A
:101B7000AC01C701B6010E9422106B017C010E94DA
:101B8000F7102B013C010E9423119B01AC01C701FE
:101B9000B6010E9421106B017C012AE0B301A20171
:101BA000CE010E94630C080F191FBB2039F06DE2B3
:101BB00072E0CE010E941E0C080F191F7B2C7720AB
:101BC00041F120E030E040E251E4C701B6010E945B
:101BD000D9116B017C010E94F2104B01AA2497FCE1
:101BE000A094BA2C2AE030E0B501A401CE010E94F5
:101BF000BC0C080F191FC501B4010E9425119B01DF
:101C0000AC01C701B6010E9421106B017C017A94DE
:101C1000D6CFC801DF91CF911F910F91FF90EF9028
:101C2000DF90CF90BF90AF909F908F907F906F90FC
:101C30005F904F9008950C94300D0F931F93CF93A6
:101C4000DF93EC010E94300D8C01CE010E943D0C0F
:101C5000800F911FDF91CF911F910F910895809177
:101C6000680390E020916903821B910908952091F7
:101C7000690380916803281750F4E22FF0E0E659D9
:101C8000FC4F808190E02F5F2093690308958FEFD0
:101C90009FEF0895E091690380916803E81730F49D
:101CA000F0E0E659FC4F808190E008958FEF9FEFC0
:101CB00008950895CF92DF92EF92FF920F931F93B2
:101CC000CF93DF937C01CB018A012091450322232E
:101CD00089F0EB016B01C40ED51ECC15DD0569F052
:101CE0006991D701ED91FC910190F081E02DC70140
:101CF0000995F3CF642F0E94CA0EC801DF91CF91DE
:101D00001F910F91FF90EF90DF90CF900895CF93A8
:101D1000DF931F92CDB7DEB769832091450322235D
:101D2000D1F020914603203240F021E030E0FC0168
:101D30003383228380E090E015C080914703E82F31
:101D4000F0E0E85BFC4F998190838F5F80934703BD
:101D50008093460305C061E0CE0101960E94CA0E41
:101D600081E090E00F90DF91CF910895FC01138204
:101D7000128248EE53E060E070E04483558366834E
:101D8000778383E392E091838083089589E393E0EE
:101D90000C94B60E613298F42091F703243089F444
:101DA0006093AC03FC018EEA93E0DC012A2F281B30
:101DB000261718F421912D93F9CF80E0089581E042
:101DC000089582E0089585ED8093BC008091BC0069
:101DD00084FDFCCF1092F703089585EC8093BC003E
:101DE0001092F70308951F920F920FB60F921124CD
:101DF0002F933F934F935F936F937F938F939F9313
:101E0000AF93BF93EF93FF938091B900887F8036A3
:101E100009F49CC068F5883209F45BC090F4803105
:101E200009F454C038F4882309F4F5C0883009F463
:101E30004DC0F5C0883109F44CC0803209F45DC052
:101E4000EEC0803409F468C048F4803309F455C00A
:101E5000883309F0E4C080938A03A8C0803509F470
:101E60004FC0883509F45DC0883409F0D8C0D5C0AA
:101E7000883909F4C6C0A8F4883709F467C038F473
:101E8000883609F463C0803709F460C0C8C0883858
:101E900009F4B7C0803909F45FC0803809F0BFC0C9
:101EA0005BC0803B09F485C038F4803A09F466C011
:101EB000883A09F47EC0B3C0803C09F4A6C0883CCF
:101EC00009F4A3C0883B09F489C0A9C08091F60336
:101ED00010C09091CF038091CE03981770F5E091D8
:101EE000CF0381E08E0F8093CF03F0E0E053FC4FEF
:101EF00080818093BB0085EC85C080938A038DC070
:101F0000E091CF0381E08E0F8093CF038091BB00DF
:101F1000F0E0E053FC4F80839091CF038091CE039B
:101F20006DC0E091CF0381E08E0F8093CF0380914D
:101F3000BB00F0E0E053FC4F80838091F5038111FA
:101F40006CC081E08093F40384EA60C083E08093F6
:101F5000F70310928B03CFCF80918B03803208F070
:101F600050C0E0918B0381E08E0F80938B038091B2
:101F7000BB00F0E0E457FC4F8083BDCF80918B0322
:101F8000803230F4E0918B03F0E0E457FC4F108294
:101F90000E94E30E60918B0370E0E091F003F091FA
:101FA000F1038CE893E0099510928B030E94ED0EEB
:101FB00036C084E08093F7031092AD031092AC0317
:101FC000E091F203F091F30309958091AC03811144
:101FD00005C081E08093AC031092AE03E091AD03A5
:101FE00081E08E0F8093AD03F0E0E255FC4F8081DD
:101FF0008093BB009091AD038091AC03981708F4D7
:102000007ACF85E88093BC000AC085EC8093BC0041
:102010001092F70304C010928A030E94E30EFF910E
:10202000EF91BF91AF919F918F917F916F915F9150
:102030004F913F912F910F900FBE0F901F901895C9
:1020400008955058BB27AA270ED075C166D130F02D
:102050006BD120F031F49F3F11F41EF45BC10EF4FC
:10206000E095E7FB51C1E92F77D180F3BA176207FA
:1020700073078407950718F071F49EF58FC10EF46D
:10208000E0950B2EBA2FA02D0B01B90190010C0188
:10209000CA01A0011124FF27591B99F0593F50F4A0
:1020A000503E68F11A16F040A22F232F342F4427F8
:1020B000585FF3CF469537952795A795F0405395F0
:1020C000C9F77EF41F16BA0B620B730B840BBAF0C0
:1020D0009150A1F0FF0FBB1F661F771F881FC2F72B
:1020E0000EC0BA0F621F731F841F48F4879577953F
:1020F0006795B795F7959E3F08F0B3CF9395880FF6
:1021000008F09927EE0F979587950895D9D008F490
:1021100081E008950CD00FC107D140F0FED030F01F
:1021200021F45F3F19F0F0C0511139C1F3C014D14F
:1021300098F39923C9F35523B1F3951B550BBB278E
:10214000AA2762177307840738F09F5F5F4F220F3B
:10215000331F441FAA1FA9F333D00E2E3AF0E0E834
:1021600030D091505040E695001CCAF729D0FE2F80
:1021700027D0660F771F881FBB1F26173707480712
:10218000AB07B0E809F0BB0B802DBF01FF279358C8
:102190005F4F2AF09E3F510568F0B6C000C15F3F17
:1021A000ECF3983EDCF3869577956795B795F795B0
:1021B0009F5FC9F7880F911D9695879597F90895A8
:1021C000E1E0660F771F881FBB1F62177307840744
:1021D000BA0720F0621B730B840BBA0BEE1F88F753
:1021E000E095089504D06894B111D9C00895BCD089
:1021F00088F09F5790F0B92F9927B751A0F0D1F0F0
:10220000660F771F881F991F1AF0BA95C9F712C079
:10221000B13081F0C3D0B1E00895C0C0672F782FEE
:102220008827B85F39F0B93FCCF3869577956795E5
:10223000B395D9F73EF490958095709561957F4F51
:102240008F4F9F4F0895E89409C097FB3EF49095F7
:102250008095709561957F4F8F4F9F4F9923A9F07F
:10226000F92F96E9BB279395F6958795779567950E
:10227000B795F111F8CFFAF4BB0F11F460FF1BC052
:102280006F5F7F4F8F4F9F4F16C0882311F096E9E5
:1022900011C0772321F09EE8872F762F05C0662393
:1022A00071F096E8862F70E060E02AF09A95660F4C
:1022B000771F881FDAF7880F9695879597F9089505
:1022C000990F0008550FAA0BE0E8FEEF1616170647
:1022D000E807F907C0F012161306E407F50798F0AF
:1022E000621B730B840B950B39F40A2661F0232BC8
:1022F000242B252B21F408950A2609F4A140A69544
:102300008FEF811D811D089597F99F6780E870E028
:1023100060E008959FEF80EC089500240A9416165B
:10232000170618060906089500240A9412161306C3
:10233000140605060895092E0394000C11F4882351
:1023400052F0BB0F40F4BF2B11F460FF04C06F5F6D
:102350007F4F8F4F9F4F089557FD9058440F551F43
:1023600059F05F3F71F04795880F97FB991F61F017
:102370009F3F79F087950895121613061406551F8E
:10238000F2CF4695F1DF08C0161617061806991FFA
:10239000F1CF86957105610508940895E894BB27EF
:1023A00066277727CB0197F908958ADF08F48FEF26
:1023B00008950BD0C0CFB1DF28F0B6DF18F0952319
:1023C00009F0A2CFA7CF1124EACFC6DFA0F3959FD3
:1023D000D1F3950F50E0551F629FF001729FBB270C
:1023E000F00DB11D639FAA27F00DB11DAA1F649FB8
:1023F0006627B00DA11D661F829F2227B00DA11D6B
:10240000621F739FB00DA11D621F839FA00D611DF0
:10241000221F749F3327A00D611D231F849F600D11
:10242000211D822F762F6A2F11249F5750408AF04A
:10243000E1F088234AF0EE0FFF1FBB1F661F771FD6
:10244000881F91505040A9F79E3F510570F05CCF16
:10245000A6CF5F3FECF3983EDCF3869577956795C2
:10246000B795F795E7959F5FC1F7FE2B880F911DF4
:102470009695879597F9089523DF880B990B089512
:10248000AA1BBB1B51E107C0AA1FBB1FA617B7079A
:1024900010F0A61BB70B881F991F5A95A9F78095B6
:1024A0009095BC01CD01089597FB072E16F400947A
:1024B00007D077FD09D00E94401207FC05D03EF4FA
:1024C000909581959F4F0895709561957F4F0895E0
:1024D000A1E21A2EAA1BBB1BFD010DC0AA1FBB1F28
:1024E000EE1FFF1FA217B307E407F50720F0A21B9A
:1024F000B30BE40BF50B661F771F881F991F1A9407
:1025000069F760957095809590959B01AC01BD0130
:10251000CF010895052E97FB1EF400940E94A1128E
:1025200057FD07D00E94681207FC03D04EF40C94AC
:10253000A11250954095309521953F4F4F4F5F4FD9
:10254000089590958095709561957F4F8F4F9F4F1F
:102550000895EE0FFF1F0590F491E02D0994F89473
:02256000FFCFAB
:102562000000F803800040022B873D0000804001FC
:10257200526F746174696F6E2D50686F746F63650A
:102582006C6C20696E746572727570746564005348
:10259200746F702D50686F746F63656C6C20696E18
:1025A200746572727570746564006D6561737572BD
:1025B2006564206E6F7720286D41293A20004D65B1
:1025C200617375726564206176672E206166746539
:1025D2007220312073656320286D41293A200063FF
:1025E2006F756E746572636C6F636B776973650088
:1025F2004661696C656420746F207265616420664F
:10260200726F6D204448542073656E736F7221009F
:1026120048756D69646974793A200054656D706516
:102622007261747572653A20002A432025090046BA
:1026320065656C73206C696B653A20002A4300540F
:1026420068697320697320726F746174696F6E4375
:102652006F6E74726F6C6C657200457374696D6134
:102662007465206F666673657420286D56293A205A
:1026720000000000008A0AF60B0A0A250A170A68F7
:102682000A6E616E00696E66006F7666002E00004B
:10269200000000870E5A0E2F0E370E4A0E590E00FA
:00000001FF
