:100000000C946E000C9491080C94BE080C9496000D
:100010000C9496000C9496000C9496000C94960008
:100020000C9496000C9496000C9496000C9430035B
:100030000C9496000C9496000C9496000C949600E8
:100040000C94EB080C9496000C94F50B0C94270C74
:100050000C9496000C9496000C9496000C949600C8
:100060000C94870F0C949600BB04C104CB04D904F4
:10007000DB04E104EB04F9040B050D0500000008A6
:10008000000201000003040700000000000000005F
:10009000010204081020408001020408102001021F
:1000A00004081020040404040404040402020202EC
:1000B00002020303030303030000000023002600E1
:1000C000290000000000250028002B00000000008F
:1000D000240027002A005208570C5A0F11241FBE73
:1000E000CFEFD8E0DEBFCDBF12E0A0E0B1E0EAE89C
:1000F000F6E202C005900D92A034B107D9F724E0D2
:10010000A0E4B2E001C01D92AE31B207E1F710E009
:10011000CCEDD0E004C02297FE010E943F13C63D03
:10012000D107C9F70E9445080C9443130C940000B2
:10013000FC0166834783208781E085870895CF93FC
:10014000DF93EC0160E08E810E94180A61E08E81ED
:100150000E94510A19861A861B861C86DF91CF9150
:1001600008954F925F926F927F928F929F92AF927B
:10017000BF92CF92DF92EF92FF920F931F93CF9394
:10018000DF93CDB7DEB728970FB6F894DEBF0FBE6A
:10019000CDBF6A017B01480159019A01AB01C7013A
:1001A000B6010E946D122B013C01A5019401C5010D
:1001B000B4010E946D126D837E838F83988721E145
:1001C00033E243E050E4C701B6010E946D1229E119
:1001D00034E849E252E40E94B51069837A838B8344
:1001E0009C8326E13BE442E251E4C501B4010E9454
:1001F0006D129B01AC0169817A818B819C810E9487
:10020000B61069837A838B839C8328E436E246E6C2
:100210005EEBC701B6010E946D12A50194010E9418
:100220006D129B01AC0169817A818B819C810E9456
:10023000B61069837A838B839C8320EE3FE040EE87
:100240005BEBC301B2010E946D129B01AC0169819D
:100250007A818B819C810E94B61069837A838B831B
:100260009C8328EF37E840E65DEB6D817E818F81CE
:1002700098850E946D129B01AC0169817A818B8106
:100280009C810E94B61069837A838B839C832CEABD
:100290003DE041EA5AE3C301B2010E946D12A5019B
:1002A00094010E946D129B01AC0169817A818B815E
:1002B0009C810E94B6104B015C0128EC3FE84FE5A1
:1002C0005AE3C701B6010E946D122D813E814F8114
:1002D00058850E946D129B01AC01C501B4010E94BA
:1002E000B6106B017C0121EF3BE845E056EBC30102
:1002F000B2010E946D122D813E814F8158850E946E
:100300006D129B01AC01C701B6010E94B610289680
:100310000FB6F894DEBF0FBECDBFDF91CF911F9116
:100320000F91FF90EF90DF90CF90BF90AF909F9094
:100330008F907F906F905F904F900895DF92EF9233
:10034000FF920F931F93CF93DF93EC010E94350927
:1003500009851A852B853C856017710782079307ED
:1003600020F419861A861B861C862D85211111C042
:1003700009851A852B853C85DC01CB01801B910BFF
:10038000A20BB30B803D9740A105B10510F481E0AD
:100390007BC01D860E94350969877A878B879C8779
:1003A0001C821B821A821982188261E08E810E944F
:1003B000510A6AEF70E080E090E00E94640961E019
:1003C0008E810E94180A60E08E810E94510A64E1C9
:1003D00070E080E090E00E946409F89461E08E8112
:1003E0000E94510A88E290E00E948C0960E08E81B0
:1003F0000E94180AF12CD12C81E0E12C082F10E08A
:100400008E810E94870A8017910741F4E39481E06E
:1004100090E00E948C098FEFE812F2CF8E810E944B
:10042000870A9FEFE916C9F023E02F1590F4F0FC3E
:1004300010C09D2D969596959695FE01E90FF11D9C
:100440009081990F908328852E1510F491609083E8
:10045000D394F39495E5F912D0CF789427E22D1533
:1004600090F42C8130E04881898190E0840F911DC7
:100470004A81840F911D4B81840F911D9927281764
:10048000390709F484CF80E0DF91CF911F910F915C
:10049000FF90EF90DF900895CF92DF92EF92FF925E
:1004A0000F931F93CF93DF93EC01162F0E949E01B1
:1004B000882309F450C08F818B3031F008F44BC091
:1004C0008551823078F047C06A8170E080E090E02A
:1004D0000E94B711112309F443C020E030E040E14D
:1004E00051E42AC00A81602F6F7770E080E090E0CD
:1004F0000E94B91120E030E040E853E40E946D1200
:100500006B017C016B8170E080E090E00E94B9118A
:100510009B01AC01C701B6010E94B61020E030E09B
:1005200040E251E40E941E1107FD90581123D9F0BA
:1005300020E030E040E151E40E946D1220E030E024
:1005400040EA50E40E941E1120E030E040E052E416
:100550000E94B61008C020E030E040EC5FE705C024
:100560009B01AC0102C09B01AC01B901CA01DF9142
:10057000CF911F910F91FF90EF90DF90CF90089552
:10058000CF92DF92EF92FF92CF93DF93EC010E9424
:100590009E01882379F18F818B3029F158F18551A3
:1005A000823040F5688170E080E090E00E94B711F1
:1005B00020E030E040E853E40E946D126B017C01C2
:1005C000698170E080E090E00E94B9119B01AC016C
:1005D000C701B6010E94B61020E030E040E251E4CD
:1005E0000E941E110BC0688170E080E090E00E94C4
:1005F000B71104C060E070E080EC9FE7DF91CF911D
:10060000FF90EF90DF90CF900895CF92DF92EF921E
:10061000FF921F93CF93DF93D82F162F56954795B0
:100620006A01E12CF12CC0E0C11791F061E08D2F3F
:100630000E94510AC701B6010E94640960E08D2F33
:100640000E94510AC701B6010E946409CF5FECCF36
:10065000DF91CF911F91FF90EF90DF90CF900895A1
:100660001F920F920FB60F9211242F933F934F9327
:100670005F936F937F938F939F93AF93BF93EF930A
:10068000FF938091410287FF05C010928500109270
:1006900084001AC020914102332727FD30958091B4
:1006A000400290E0281739077CF480914102992795
:1006B00087FD9095FC01EE0FFF1FE80FF91FEE5B21
:1006C000FD4F808186FD15C0809141028F5F809330
:1006D000410220914102332727FD3095809140024D
:1006E00090E028173907BCF4809141028C3054F116
:1006F00012C080914102992787FD9095FC01EE0F71
:10070000FF1FE80FF91FEE5BFD4F808160E08F73E4
:100710000E94510AD9CF8091840090918500843441
:100720009C4918F480E49CE905C080918400909174
:100730008500049690938900809388008FEF8093C2
:10074000410238C08091840090918500209141023F
:10075000332727FD3095F901EE0FFF1FE20FF31F3E
:10076000EE5BFD4F21813281820F931F90938900B0
:100770008093880080914102992787FD9095FC0124
:10078000EE0FFF1FE80FF91FEE5BFD4F808186FF24
:1007900011C080914102992787FD9095FC01EE0FD1
:1007A000FF1FE80FF91FEE5BFD4F808161E08F7343
:1007B0000E94510AFF91EF91BF91AF919F918F914C
:1007C0007F916F915F914F913F912F910F900FBE4D
:1007D0000F901F901895EF92FF920F931F93CF9356
:1007E000DF93EC01842F1D861C861B821A821982DE
:1007F0001882188E198E1A8E1B8E798768874E87FD
:100800005F87398B288B1B8B0A8BFD8AEC8A61E012
:100810000E94180A61E088890E94180A61E08A89AA
:100820000E94180A61E08C890E94180A1F8A1E8A99
:1008300084E090E09B878A87DF91CF911F910F9191
:10084000FF90EF900895CF92DF92EF92FF92CF93B7
:10085000DF93EC016A017B0128853985442737FD48
:100860004095542F60E077E883E993E00E941E13DF
:10087000CA01B901A70196010E941E132C833D8372
:100880004E835F83DF91CF91FF90EF90DF90CF9009
:1008900008950F931F93CF93DF93EC018B018A850B
:1008A0009B850297F9F46130710571F02CF46115A4
:1008B0007105C1F460E009C06230710559F0633020
:1008C000710581F460E007C061E08E850E94510AE5
:1008D00061E005C061E08E850E94510A60E0888970
:1008E0000E94510A8A859B850497B9F5013011054C
:1008F000B1F04CF40115110581F561E08E850E947F
:10090000510A60E011C002301105B9F00330110541
:1009100021F561E08E850E94510A60E013C060E01D
:100920008E850E94510A61E088890E94510A61E027
:100930008A890E94510A60E00DC060E08E850E94A5
:10094000510A61E088890E94510A60E08A890E9408
:10095000510A61E08C890E94510A8A859B8505971E
:1009600009F073C00A30110508F06FC0F801EC5CA3
:10097000FF4F0C943D1360E08E850E94510A61E0A8
:1009800051C060E08E850E94510A61E088890E9412
:10099000510A60E04BC060E08E850E94510A61E020
:1009A00088890E94510A60E08A890E94510A61E0A8
:1009B00041C060E001C061E08E850E94510A61E0A3
:1009C00005C061E08E850E94510A60E088890E941E
:1009D000510A60E009C061E08E850E94510A60E022
:1009E00088890E94510A61E08A890E94510A61E067
:1009F0000DC061E08E850E94510A60E088890E94E6
:100A0000510A61E08A890E94510A60E08C890E9443
:100A1000510A60E013C061E001C060E08E850E9471
:100A2000510A60E088890E94510A61E08A890E9427
:100A3000510A60E08C890E94510A61E08E89DF9141
:100A4000CF911F910F910C94510ADF91CF911F917B
:100A50000F9108954F925F926F927F928F929F9223
:100A6000AF92BF92CF92DF92EF92FF920F931F93BC
:100A7000CF93DF93EC01CB0177FF04C08827992740
:100A8000861B970B6C01161617062CF481E090E07C
:100A90009983888304C0672B11F01982188204E0BF
:100AA00010E08AE0E82EF12CC114D10409F44AC008
:100AB0000E944109888C998CAA8CBB8C2B013C012B
:100AC000481859086A087B088C809D80AE80BF80DA
:100AD000481459046A047B0458F3688F798F8A8F0D
:100AE0009B8F288139818C859D852130310559F472
:100AF00001969D878C87288539858217930771F425
:100B00001D861C860BC0892B21F4888599859D87BD
:100B10008C878C859D8501979D878C8781E0C81A7D
:100B2000D1082A853B858C859D852530310511F4BA
:100B3000B70101C0B8010E94E812BC01CE010E94B9
:100B40004904B2CFDF91CF911F910F91FF90EF90A9
:100B5000DF90CF90BF90AF909F908F907F906F90DD
:100B60005F904F90089564E171E082EC92E00C9404
:100B7000E50C63E371E082EC92E00C94E50C0F93DA
:100B80001F938091B4020E94D209BC01882777FD8F
:100B90008095982F0E94B91120910F01309110017A
:100BA00040911101509112010E946D122091A902F1
:100BB0003091AA024091AB025091AC020E94B51054
:100BC0000E948611882777FD8095982F0E94B91181
:100BD00020910B0130910C0140910D0150910E01BB
:100BE0000E941E110E9486117093AE026093AD02A6
:100BF0006EE471E082EC92E00E94D80C6091AD024C
:100C00007091AE024AE050E082EC92E00E949A0DB0
:100C10001092AE021092AD021AE08091B4020E94CE
:100C2000D209BC01882777FD8095982F0E94B911C1
:100C300020910F013091100140911101509112014A
:100C40000E946D122091A9023091AA024091AB023C
:100C50005091AC020E94B51020910B0130910C0113
:100C600040910D0150910E010E941E110E948611AB
:100C70002091AD023091AE02260F371F3093AE02A5
:100C80002093AD026AE070E080E090E00E94640989
:100C9000115019F68091AD029091AE026AE070E0B9
:100CA0000E94E8127093AE026093AD02E09194024C
:100CB000F0E0EE0FFF1FEB56FD4F71836083009154
:100CC0009002109191022091920230919302E5E9F5
:100CD000F2E061917191882777FD8095982F600FE0
:100CE000711F821F931F22E0E93AF20719F08B016E
:100CF0009C01EFCF2AE030E040E050E00E941E135C
:100D00002093900230939102409392025093930269
:100D100062E671E082EC92E00E94D80C4091900271
:100D20005091910260919202709193022AE030E01A
:100D300082EC92E00E94B20D80919402893020F4FE
:100D40008F5F8093940202C01092940268EE73E069
:100D500080E090E01F910F910C94640963E871E0CA
:100D600082EC92E00E94E50C60910A0170E084E759
:100D700092E00E942A0564EF71E080E090E00C941C
:100D800064094F925F926F927F928F929F92AF927F
:100D9000BF92CF92DF92EF92FF920F931F9360ED7D
:100DA00077E080E090E00E94640986E692E00E948D
:100DB000C0026B017C0160E086E692E00E944C027A
:100DC0004B015C0161E086E692E00E944C022B013F
:100DD0003C01A7019601C701B6010E94D012811102
:100DE00010C0A5019401C501B4010E94D012811167
:100DF00008C0A3019201C301B2010E94D01288234E
:100E000019F06DE871E050C097018601B301A201AD
:100E100086E692E00E94B1002B013C016DEA71E090
:100E200082EC92E00E94D80C22E030E0B701A601EB
:100E300082EC92E00E94AF0E68EC71E082EC92E0EE
:100E40000E94D80C68EB71E082EC92E00E94D80C12
:100E500022E030E0B501A40182EC92E00E94AF0EE6
:100E600066EC71E082EC92E00E94D80C6CEC71E0D0
:100E700082EC92E00E94D80C20E030E040E052E4A6
:100E8000C301B2010E94B51026E636E646EE5FE3E6
:100E90000E941E11AB01BC0122E030E082EC92E026
:100EA0000E94AF0E69ED71E082EC92E01F910F910C
:100EB000FF90EF90DF90CF90BF90AF909F908F907A
:100EC0007F906F905F904F900C94E50CCF92DF92E3
:100ED000EF92FF92CF9326E040E855E260E070E0A9
:100EE00082EC92E00E94930B6CED71E082EC92E058
:100EF0000E94E50C8EE08093B40282E08093B00201
:100F000083E08093B10285E08093B30286E0809312
:100F1000B2028DE08093AF0262E082E00E94180A84
:100F200062E08091B1020E94180A61E08091B302F0
:100F30000E94180A61E08091B2020E94180A61E0E2
:100F40008091AF020E94180A43E050E069EB75E01F
:100F50008091B0020E94710843E050E063EB75E0BD
:100F60008091B1020E9471084CE350E060E070E0B3
:100F700084E792E00E94230486E692E00E949F00AC
:100F800060E08091B3020E94510A60E08091B20259
:100F90000E94510A61E08091B3020E94510A61E00F
:100FA0008091B2020E94510A44EF51E065E08091C5
:100FB000AF020E940503CAEFC090A902D090AA0216
:100FC000E090AB02F090AC028091B4020E94D20992
:100FD000BC01882777FD8095982F0E94B911209138
:100FE0000F013091100140911101509112010E94A6
:100FF0006D1220E030E04AE753E40E941E119B018D
:10100000AC01C701B6010E94B6106093A9027093AB
:10101000AA028093AB029093AC026AE070E080E099
:1010200090E00E946409C15039F644EF51E065E058
:101030008091AF020E94050367EF71E082EC92E0BD
:101040000E94D80C4091A9025091AA026091AB0273
:101050007091AC0222E030E082EC92E00E94B10E8E
:1010600060E08091B3020E94510A60E08091B20278
:10107000CF91FF90EF90DF90CF900C94510A0E9497
:10108000BF050E94AE060C94C1060E9497090E94FB
:101090006607CDEDDAE00E943F082097E1F30E9459
:1010A000DD0AF9CFEF92FF920F931F9360910A012F
:1010B00070E05BE0E52EF12C0AE010E029E030E082
:1010C00048E050E084E792E00E94EB0326E04BE02A
:1010D00067E086E692E01F910F91FF90EF900C94ED
:1010E00098008230E8F4E82FF0E0EE0FFF1FEB5499
:1010F000FD4F71836083813041F0809169008C7F66
:10110000842B80936900E89A089580916900440FC8
:10111000551F440F551F837F842B80936900E99AE4
:1011200008951F920F920FB60F9211242F933F93A1
:101130004F935F936F937F938F939F93AF93BF93DF
:10114000EF93FF938091B5029091B602892B29F01D
:10115000E091B502F091B6020995FF91EF91BF9130
:10116000AF919F918F917F916F915F914F913F913F
:101170002F910F900FBE0F901F9018951F920F92F6
:101180000FB60F9211242F933F934F935F936F935A
:101190007F938F939F93AF93BF93EF93FF93809130
:1011A000B7029091B802892B29F0E091B702F09133
:1011B000B8020995FF91EF91BF91AF919F918F91E7
:1011C0007F916F915F914F913F912F910F900FBE43
:1011D0000F901F9018951F920F920FB60F92112427
:1011E0002F933F938F939F93AF93BF938091BA02B6
:1011F0009091BB02A091BC02B091BD023091B902A6
:1012000023E0230F2D3720F40196A11DB11D05C049
:1012100026E8230F0296A11DB11D2093B9028093E9
:10122000BA029093BB02A093BC02B093BD0280911E
:10123000BE029091BF02A091C002B091C10201967E
:10124000A11DB11D8093BE029093BF02A093C00266
:10125000B093C102BF91AF919F918F913F912F9118
:101260000F900FBE0F901F9018952FB7F8946091B4
:10127000BA027091BB028091BC029091BD022FBF57
:1012800008953FB7F8948091BE029091BF02A0915B
:10129000C002B091C10226B5A89B05C02F3F19F02E
:1012A0000196A11DB11D3FBF6627782F892F9A2F68
:1012B000620F711D811D911D42E0660F771F881F0F
:1012C000991F4A95D1F70895CF92DF92EF92FF923E
:1012D000CF93DF936B017C010E944109EB01C114A4
:1012E000D104E104F10489F00E94B4100E94410984
:1012F0006C1B7D0B683E734090F381E0C81AD108E7
:10130000E108F108C851DC4FEACFDF91CF91FF909F
:10131000EF90DF90CF9008958230910538F0880FDC
:10132000991F880F991F05970197F1F708957894F1
:1013300084B5826084BD84B5816084BD85B58260DA
:1013400085BD85B5816085BDEEE6F0E08081816078
:101350008083E1E8F0E01082808182608083808178
:1013600081608083E0E8F0E0808181608083E1EB50
:10137000F0E0808184608083E0EBF0E08081816038
:101380008083EAE7F0E080818460808380818260EE
:1013900080838081816080838081806880831092D7
:1013A000C10008958E3008F08E508770209113018F
:1013B00090E4299F90011124822B80937C008091DE
:1013C0007A00806480937A0080917A0086FDFCCF59
:1013D000809178002091790090E0922B08958330DD
:1013E00081F028F4813099F08230A1F0089587309F
:1013F000A9F08830B9F08430D1F4809180008F7DDD
:1014000003C0809180008F7780938000089584B519
:101410008F7702C084B58F7D84BD08958091B00020
:101420008F7703C08091B0008F7D8093B0000895C6
:10143000CF93DF9390E0FC01E057FF4F2491FC0134
:10144000EC55FF4F8491882349F190E0880F991F54
:10145000FC01E453FF4FA591B4918E539F4FFC01C3
:10146000C591D4919FB7611108C0F8948C912095D3
:1014700082238C93888182230AC0623051F4F894CD
:101480008C91322F309583238C938881822B888393
:1014900004C0F8948C91822B8C939FBFDF91CF91E5
:1014A00008950F931F93CF93DF931F92CDB7DEB7AD
:1014B000282F30E0F901E458FF4F8491F901E057FB
:1014C000FF4F1491F901EC55FF4F04910023C9F02F
:1014D000882321F069830E94EF096981E02FF0E001
:1014E000EE0FFF1FEE53FF4FA591B4919FB7F894F5
:1014F0008C91611103C01095812301C0812B8C93C5
:101500009FBF0F90DF91CF911F910F910895CF93BF
:10151000DF93282F30E0F901E458FF4F8491F9015F
:10152000E057FF4FD491F901EC55FF4FC491CC2304
:1015300091F081110E94EF09EC2FF0E0EE0FFF1FF8
:10154000E854FF4FA591B4912C912D2381E090E0B8
:1015500021F480E002C080E090E0DF91CF91089517
:10156000FC01818D228D90E0805C9F4F821B910950
:101570008F7399270895FC01918D828D981731F012
:10158000828DE80FF11D858D90E008958FEF9FEF1C
:101590000895FC01918D828D981761F0828DDF0195
:1015A000A80FB11D5D968C91928D9F5F9F73928F56
:1015B00090E008958FEF9FEF08958DE49CE0892BD4
:1015C00049F080E090E0892B29F00E944D0C8111B8
:1015D0000C9400000895FC01848DDF01A80FB11D5B
:1015E000A35ABF4F2C91848D90E001968F73992759
:1015F000848FA689B7892C93A089B1898C91806446
:101600008C93938D848D981306C00288F389E02D06
:1016100080818F7D80830895CF93DF93EC01888D47
:101620008823C9F0EA89FB89808185FD05C0A889E6
:10163000B9898C9186FD0FC00FB607FCF5CF80816C
:1016400085FFF2CFA889B9898C9185FFEDCFCE01B6
:101650000E94EB0AE7CFDF91CF910895CF92DF92FE
:10166000FF920F931F93CF93DF931F92CDB7DEB7F7
:101670006C0181E0D60158968C9358975B969C91AB
:101680005B975C968C915C97981307C05096ED9190
:10169000FC915197808185FD2EC0F601038D10E0ED
:1016A0000F5F1F4F0F731127F02EF601848DF81274
:1016B00011C00FB607FCF9CFD6015096ED91FC9101
:1016C0005197808185FFF1CFC60169830E94EB0AA3
:1016D0006981EBCF838DE80FF11DE35AFF4F6083E3
:1016E000D6015B960C935B975296ED91FC915397C4
:1016F000808180620CC0D6015696ED91FC9157977F
:1017000060835096ED91FC91519780818064808335
:1017100081E090E00F90DF91CF911F910F91FF90AA
:10172000DF90CF900895BF92CF92DF92EF92FF9219
:10173000CF93DF93EC016A017B01B22EE889F9892E
:1017400082E08083411581EE580761057105A1F0A3
:1017500060E079E08DE390E0A70196010E94FC1221
:1017600021503109410951095695479537952795DB
:10177000211580E1380798F0E889F989108260E83E
:1017800074E88EE190E0A70196010E94FC122150BE
:101790003109410951095695479537952795EC85AB
:1017A000FD853083EE85FF852083188EEC89FD89C9
:1017B000B082EA89FB89808180618083EA89FB8924
:1017C000808188608083EA89FB898081806880834A
:1017D000EA89FB8980818F7D8083DF91CF91FF90A3
:1017E000EF90DF90CF90BF9008951F920F920FB6A9
:1017F0000F9211242F938F939F93EF93FF93E09178
:10180000D202F091D3028081E091D802F091D90206
:1018100082FD12C090818091DB028F5F8F732091D7
:10182000DC02821751F0E091DB02F0E0EE53FD4F55
:10183000958F8093DB0201C08081FF91EF919F9192
:101840008F912F910F900FBE0F901F9018951F92A0
:101850000F920FB60F9211242F933F934F935F93E4
:101860006F937F938F939F93AF93BF93EF93FF9368
:1018700082EC92E00E94EB0AFF91EF91BF91AF9151
:101880009F918F917F916F915F914F913F912F9198
:101890000F900FBE0F901F90189582EC92E00E945F
:1018A000B00A21E0892B09F420E0822F08951092DC
:1018B000C5021092C40288EE93E0A0E0B0E08093ED
:1018C000C6029093C702A093C802B093C90282E1F6
:1018D00092E09093C3028093C20285EC90E09093D3
:1018E000CF028093CE0284EC90E09093D10280935B
:1018F000D00280EC90E09093D3028093D20281ECEE
:1019000090E09093D5028093D40282EC90E0909383
:10191000D7028093D60286EC90E09093D902809310
:10192000D8021092DB021092DC021092DD021092BB
:10193000DE020895CF92DF92EF92FF920F931F93F2
:10194000CF93DF936C017A01EB01E60EF71E00E006
:1019500010E0CE15DF0561F06991D601ED91FC91A3
:101960000190F081E02DC6010995080F191FF1CFF4
:10197000C801DF91CF911F910F91FF90EF90DF9001
:10198000CF9008956115710581F0DB010D90002065
:10199000E9F7AD0141505109461B570BDC01ED91B0
:1019A000FC910280F381E02D099480E090E008959D
:1019B0000C94C20CDC01ED91FC910190F081E02DC2
:1019C00009946EE172E00C94C20C0F931F93CF93B5
:1019D000DF93EC010E94C20C8C01CE010E94E10C4D
:1019E000800F911FDF91CF911F910F9108958F92DA
:1019F0009F92AF92BF92CF92DF92EF92FF920F939E
:101A00001F93CF93DF93CDB7DEB7A1970FB6F894AE
:101A1000DEBF0FBECDBF7C01C42EE52FCB01D22E81
:101A200019A221E02D1510F02AE0D22E8E010F5DB3
:101A30001F4F8D2C912CA12CB12C6C2D7E2FA5012C
:101A400094010E94FC128C2DD29E80191124015009
:101A500011098A3014F4805D01C0895CF80180832B
:101A6000211531054105510521F0C22EE32FCA0190
:101A7000E4CFB801C7010E94C20CA1960FB6F8943A
:101A8000DEBF0FBECDBFDF91CF911F910F91FF90B1
:101A9000EF90DF90CF90BF90AF909F908F90089580
:101AA000CF92DF92EF92FF920F931F93CF93DF932A
:101AB000EC016A017B012115310579F4E881F98196
:101AC0000190F081E02D642FDF91CF911F910F9154
:101AD000FF90EF90DF90CF9009942A303105E9F420
:101AE00077FF1AC06DE20E94DA0C8C01442755275B
:101AF000BA014C195D096E097F092AE0CE010E94E6
:101B0000F70C800F911FDF91CF911F910F91FF90E4
:101B1000EF90DF90CF9008952AE0B701A601CE01A3
:101B2000DF91CF911F910F91FF90EF90DF90CF90B9
:101B30000C94F70C0F931F93CF93DF93EC019A0152
:101B4000AB01662757FD6095762F0E94500D8C01E2
:101B5000CE010E94E10C800F911FDF91CF911F9168
:101B60000F9108950F931F93CF93DF93EC010E9481
:101B7000500D8C01CE010E94E10C800F911FDF916E
:101B8000CF911F910F9108954F925F926F927F9224
:101B90008F929F92AF92BF92CF92DF92EF92FF927D
:101BA0000F931F93CF93DF93EC016A017B01B22E59
:101BB0009A01AB01C701B6010E94D012882319F027
:101BC00061E272E027C026013701E89477F82FEF31
:101BD0003FEF4FE75FE7C301B2010E94D0128111CE
:101BE0000DC02FEF3FEF4FE75FE7C301B2010E9447
:101BF0001A1118161CF465E272E00CC02FEF3FEFCB
:101C00004FE75FE4C701B6010E9469121816ACF4F1
:101C100069E272E0CE01DF91CF911F910F91FF90A9
:101C2000EF90DF90CF90BF90AF909F908F907F907C
:101C30006F905F904F900C94C20C2FEF3FEF4FE7E7
:101C40005FECC701B6010E941A1187FDE1CF20E0C9
:101C500030E0A901C701B6010E941A1187FF0AC02E
:101C60006DE2CE010E94DA0C8C01F7FAF094F7F8DD
:101C7000F09402C000E010E0A12C60E070E080E091
:101C80009FE3AB1441F020E030E040E251E40E94D9
:101C90001E11A394F6CF9B01AC01C701B6010E94AF
:101CA000B6106B017C010E948B112B013C010E943C
:101CB000B7119B01AC01C701B6010E94B5106B01C1
:101CC0007C012AE0B301A201CE010E94F70C080FAB
:101CD000191FBB2039F06DE272E0CE010E94C20CE8
:101CE000080F191F7B2C772041F120E030E040E203
:101CF00051E4C701B6010E946D126B017C010E9484
:101D000086114B01AA2497FCA094BA2C2AE030E05B
:101D1000B501A401CE010E94500D080F191FC50185
:101D2000B4010E94B9119B01AC01C701B6010E9428
:101D3000B5106B017C017A94D6CFC801DF91CF91A9
:101D40001F910F91FF90EF90DF90CF90BF90AF90D9
:101D50009F908F907F906F905F904F9008950C941C
:101D6000C40D0F931F93CF93DF93EC010E94C40D1A
:101D70008C01CE010E94E10C800F911FDF91CF9169
:101D80001F910F91089580918E0390E020918F0311
:101D9000821B9109089520918F0380918E0328174B
:101DA00050F4E22FF0E0E057FC4F808190E02F5F8D
:101DB00020938F0308958FEF9FEF0895E0918F0395
:101DC00080918E03E81730F4F0E0E057FC4F8081FB
:101DD00090E008958FEF9FEF08950895CF92DF92DE
:101DE000EF92FF920F931F93CF93DF937C01CB0170
:101DF0008A0120916B03222389F0EB016B01C40E51
:101E0000D51ECC15DD0569F06991D701ED91FC91E6
:101E10000190F081E02DC7010995F3CF642F0E9456
:101E20005E0FC801DF91CF911F910F91FF90EF904E
:101E3000DF90CF900895CF93DF931F92CDB7DEB799
:101E4000698320916B032223D1F020916C0320320F
:101E500040F021E030E0FC013383228380E090E019
:101E600015C080916D03E82FF0E0E259FC4F998195
:101E700090838F5F80936D0380936C0305C061E056
:101E8000CE0101960E945E0F81E090E00F90DF91FD
:101E9000CF910895FC011382128248EE53E060E076
:101EA00070E0448355836683778383E392E0918374
:101EB000808308958FE593E00C944A0F613298F483
:101EC00020911D04243089F46093D203FC0184ED39
:101ED00093E0DC012A2F281B261718F421912D935B
:101EE000F9CF80E0089581E0089582E0089585EDBE
:101EF0008093BC008091BC0084FDFCCF10921D0437
:101F0000089585EC8093BC0010921D0408951F92E3
:101F10000F920FB60F9211242F933F934F935F931D
:101F20006F937F938F939F93AF93BF93EF93FF93A1
:101F30008091B900887F803609F49CC068F58832AA
:101F400009F45BC090F4803109F454C038F488235C
:101F500009F4F5C0883009F44DC0F5C0883109F4A2
:101F60004CC0803209F45DC0EEC0803409F468C012
:101F700048F4803309F455C0883309F0E4C08093F5
:101F8000B003A8C0803509F44FC0883509F45DC09E
:101F9000883409F0D8C0D5C0883909F4C6C0A8F47F
:101FA000883709F467C038F4883609F463C080378D
:101FB00009F460C0C8C0883809F4B7C0803909F492
:101FC0005FC0803809F0BFC05BC0803B09F485C0AA
:101FD00038F4803A09F466C0883A09F47EC0B3C088
:101FE000803C09F4A6C0883C09F4A3C0883B09F4EE
:101FF00089C0A9C080911C0410C09091F503809104
:10200000F403981770F5E091F50381E08E0F80934B
:10201000F503F0E0EA50FC4F80818093BB0085EC33
:1020200085C08093B0038DC0E091F50381E08E0FF1
:102030008093F5038091BB00F0E0EA50FC4F808371
:102040009091F5038091F4036DC0E091F50381E078
:102050008E0F8093F5038091BB00F0E0EA50FC4FB7
:10206000808380911B0481116CC081E080931A04ED
:1020700084EA60C083E080931D041092B103CFCF47
:102080008091B103803208F050C0E091B10381E04B
:102090008E0F8093B1038091BB00F0E0EE54FC4FB3
:1020A0008083BDCF8091B103803230F4E091B103E1
:1020B000F0E0EE54FC4F10820E94770F6091B10364
:1020C00070E0E0911604F091170482EB93E009951B
:1020D0001092B1030E94810F36C084E080931D04EA
:1020E0001092D3031092D203E0911804F0911904D6
:1020F00009958091D203811105C081E08093D203BC
:102100001092D403E091D30381E08E0F8093D30328
:10211000F0E0EC52FC4F80818093BB009091D303A0
:102120008091D203981708F47ACF85E88093BC0099
:102130000AC085EC8093BC0010921D0404C010926C
:10214000B0030E94770FFF91EF91BF91AF919F91E4
:102150008F917F916F915F914F913F912F910F9050
:102160000FBE0F901F90189508955058BB27AA27AF
:102170000ED075C166D130F06BD120F031F49F3FA5
:1021800011F41EF45BC10EF4E095E7FB51C1E92F99
:1021900077D180F3BA17620773078407950718F0A1
:1021A00071F49EF58FC10EF4E0950B2EBA2FA02D81
:1021B0000B01B90190010C01CA01A0011124FF27F4
:1021C000591B99F0593F50F4503E68F11A16F040EF
:1021D000A22F232F342F4427585FF3CF46953795EE
:1021E0002795A795F0405395C9F77EF41F16BA0BB3
:1021F000620B730B840BBAF09150A1F0FF0FBB1F61
:10220000661F771F881FC2F70EC0BA0F621F731FA9
:10221000841F48F4879577956795B795F7959E3F06
:1022200008F0B3CF9395880F08F09927EE0F979594
:1022300087950895D9D008F481E008950CD00FC196
:1022400007D140F0FED030F021F45F3F19F0F0C02C
:10225000511139C1F3C014D198F39923C9F355230F
:10226000B1F3951B550BBB27AA2762177307840789
:1022700038F09F5F5F4F220F331F441FAA1FA9F33F
:1022800033D00E2E3AF0E0E830D091505040E69531
:10229000001CCAF729D0FE2F27D0660F771F881F92
:1022A000BB1F261737074807AB07B0E809F0BB0B81
:1022B000802DBF01FF2793585F4F2AF09E3F5105A5
:1022C00068F0B6C000C15F3FECF3983EDCF3869542
:1022D00077956795B795F7959F5FC9F7880F911D1B
:1022E0009695879597F90895E1E0660F771F881F07
:1022F000BB1F621773078407BA0720F0621B730BBA
:10230000840BBA0BEE1F88F7E095089504D068940B
:10231000B111D9C00895BCD088F09F5790F0B92F63
:102320009927B751A0F0D1F0660F771F881F991F2A
:102330001AF0BA95C9F712C0B13081F0C3D0B1E03C
:102340000895C0C0672F782F8827B85F39F0B93F4C
:10235000CCF3869577956795B395D9F73EF490952C
:102360008095709561957F4F8F4F9F4F0895E894AA
:1023700009C097FB3EF490958095709561957F4FCD
:102380008F4F9F4F9923A9F0F92F96E9BB2793957B
:10239000F695879577956795B795F111F8CFFAF48B
:1023A000BB0F11F460FF1BC06F5F7F4F8F4F9F4FBC
:1023B00016C0882311F096E911C0772321F09EE81A
:1023C000872F762F05C0662371F096E8862F70E080
:1023D00060E02AF09A95660F771F881FDAF7880F5A
:1023E0009695879597F90895990F0008550FAA0BB0
:1023F000E0E8FEEF16161706E807F907C0F0121618
:102400001306E407F50798F0621B730B840B950B1A
:1024100039F40A2661F0232B242B252B21F408956F
:102420000A2609F4A140A6958FEF811D811D08950C
:1024300097F99F6780E870E060E008959FEF80EC77
:10244000089500240A94161617061806090608951A
:1024500000240A9412161306140605060895092E80
:102460000394000C11F4882352F0BB0F40F4BF2BEF
:1024700011F460FF04C06F5F7F4F8F4F9F4F08952F
:1024800057FD9058440F551F59F05F3F71F0479525
:10249000880F97FB991F61F09F3F79F0879508950A
:1024A000121613061406551FF2CF4695F1DF08C029
:1024B000161617061806991FF1CF86957105610546
:1024C00008940895E894BB2766277727CB0197F9EE
:1024D00008958ADF08F48FEF08950BD0C0CFB1DFE5
:1024E00028F0B6DF18F0952309F0A2CFA7CF11246A
:1024F000EACFC6DFA0F3959FD1F3950F50E0551FAB
:10250000629FF001729FBB27F00DB11D639FAA2748
:10251000F00DB11DAA1F649F6627B00DA11D661F97
:10252000829F2227B00DA11D621F739FB00DA11DB8
:10253000621F839FA00D611D221F749F3327A00D72
:10254000611D231F849F600D211D822F762F6A2F0E
:1025500011249F5750408AF0E1F088234AF0EE0F93
:10256000FF1FBB1F661F771F881F91505040A9F7A0
:102570009E3F510570F05CCFA6CF5F3FECF3983ED5
:10258000DCF3869577956795B795F795E7959F5F07
:10259000C1F7FE2B880F911D9695879597F90895A1
:1025A00023DF880B990B0895AA1BBB1B51E107C0C1
:1025B000AA1FBB1FA617B70710F0A61BB70B881FD3
:1025C000991F5A95A9F780959095BC01CD01089562
:1025D00097FB072E16F4009407D077FD09D00E94D0
:1025E000D41207FC05D03EF4909581959F4F089535
:1025F000709561957F4F0895A1E21A2EAA1BBB1B0F
:10260000FD010DC0AA1FBB1FEE1FFF1FA217B307BE
:10261000E407F50720F0A21BB30BE40BF50B661FD4
:10262000771F881F991F1A9469F760957095809598
:1026300090959B01AC01BD01CF010895052E97FB3C
:102640001EF400940E94351357FD07D00E94FC121F
:1026500007FC03D04EF40C943513509540953095FB
:1026600021953F4F4F4F5F4F0895909580957095FE
:1026700061957F4F8F4F9F4F0895EE0FFF1F05907D
:0A268000F491E02D0994F894FFCFC7
:10268A0000001E0480000100000040022B873D006C
:10269A0000804001526F746174696F6E2050686FD8
:1026AA00746F63656C6C20696E7465727275707490
:1026BA0065640053746F702050686F746F63656C43
:1026CA006C20696E746572727570746564006D65EC
:1026DA00617375726564206E6F7720286D41293A9F
:1026EA0020004D65617375726564206176672E20DE
:1026FA00616674657220312073656320286D4129F3
:10270A003A2000636C6F636B776973650046616991
:10271A006C656420746F20726561642066726F6DE7
:10272A00204448542073656E736F72210048756D9A
:10273A0069646974793A200054656D7065726174D0
:10274A007572653A20002A43202509004665656CA2
:10275A0073206C696B653A20002A430054686973D8
:10276A0020697320726F746174696F6E436F6E743F
:10277A00726F6C6C657200457374696D6174652063
:10278A006F666673657420286D56293A200000002A
:10279A0000002E0B9A0CB00AC90ABB0A0C0B0D0AD0
:1027AA00006E616E00696E66006F7666002E00002C
:1027BA000000001B0FEE0EC30ECB0EDE0EED0E0058
:00000001FF
