:100000000C945E000C94B0020C94DD020C948600FB
:100010000C9486000C9486000C9486000C94860048
:100020000C9486000C9486000C9486000C94860038
:100030000C9486000C9486000C9486000C94860028
:100040000C940A030C9486000C94D4050C940606B8
:100050000C9486000C9486000C9486000C94860008
:100060000C9464090C948600000000080002010052
:100070000003040700000000000000000102040863
:100080001020408001020408102001020408102002
:10009000040404040404040402020202020203032E
:1000A0000303030300000000250028002B000000CC
:1000B0000000240027002A003606370911241FBE3D
:1000C000CFEFD8E0DEBFCDBF11E0A0E0B1E0E4E4C7
:1000D000FAE102C005900D92A43FB107D9F723E0E1
:1000E000A4EFB1E001C01D92A238B207E1F710E021
:1000F000CCEBD0E004C02297FE010E941C0DC83B4F
:10010000D107C9F70E9483020C94200D0C940000C3
:10011000CF92DF92EF92FF921F93CF93DF93D82F6E
:10012000162F569547956A01E12CF12CC0E0C117B6
:1001300091F061E08D2F0E945904C701B6010E9421
:10014000770360E08D2F0E945904C701B6010E9419
:100150007703CF5FECCFDF91CF911F91FF90EF90AE
:10016000DF90CF9008956FE071E086E292E00C940A
:10017000C4066EE271E086E292E00C94C4060F932E
:100180001F93809118020E94DA03BC01882777FD33
:100190008095982F0E94960B20910A0130910B01B7
:1001A00040910C0150910D010E944A0C20910D02CA
:1001B00030910E0240910F02509110020E94920A5B
:1001C0000E94630B882777FD8095982F0E94960BDD
:1001D00020910601309107014091080150910901D9
:1001E0000E94FB0A0E94630B70931202609311023B
:1001F00069E471E086E292E00E94B7066091110224
:10020000709112024AE050E086E292E00E94790783
:1002100010921202109211021AE0809118020E94AC
:10022000DA03BC01882777FD8095982F0E94960BF2
:1002300020910A0130910B0140910C0150910D0168
:100240000E944A0C20910D0230910E0240910F0243
:10025000509110020E94920A2091060130910701EC
:1002600040910801509109010E94FB0A0E94630B12
:100270002091110230911202260F371F3093120283
:10028000209311026AE070E080E090E00E94770322
:10029000115019F680911102909112026AE070E0FB
:1002A0000E94C50C7093120260931102E091F80154
:1002B000F0E0EE0FFF1FE750FE4F71836083009167
:1002C000F4011091F5012091F6013091F701E9EF69
:1002D000F1E061917191882777FD8095982F600FEB
:1002E000711F821F931F22E0ED30F20719F08B017E
:1002F0009C01EFCF2AE030E040E050E00E94FB0C90
:100300002093F4013093F5014093F6015093F701E7
:100310006DE571E086E292E00E94B7064091F4013B
:100320005091F5016091F6017091F7012AE030E0FB
:1003300086E292E00E9491078091F801893020F4D2
:100340008F5F8093F80102C01092F80168EE73E0AD
:1003500080E090E01F910F910C947703CF92DF9291
:10036000EF92FF92CF9326E040E855E260E070E024
:1003700086E292E00E9472056EE771E086E292E00A
:100380000E94C40683E18093180282E080931402E5
:1003900083E08093150284E08093170285E08093C8
:1003A00016028DE08093130262E082E00E94200436
:1003B00062E0809115020E94200461E080911702A2
:1003C0000E94200461E0809116020E94200461E0F6
:1003D000809113020E94200443E050E069EB70E03A
:1003E000809114020E94900243E050E063EB70E0C1
:1003F000809115020E94900260E0809117020E9495
:10040000590460E0809116020E94590461E08091D5
:1004100017020E94590461E0809116020E9459045B
:1004200044EF51E065E0809113020E948800CAEF1A
:10043000C0900D02D0900E02E0900F02F0901002DA
:10044000809118020E94DA03BC01882777FD80950D
:10045000982F0E94960B20910A0130910B01409138
:100460000C0150910D010E944A0C20E030E04AE757
:1004700053E40E94FB0A9B01AC01C701B6010E9434
:10048000930A60930D0270930E0280930F02909373
:1004900010026AE070E080E090E00E947703C150B3
:1004A00039F644EF51E065E0809113020E94880024
:1004B00061EA71E086E292E00E94B70640910D0287
:1004C00050910E0260910F027091100222E030E014
:1004D00086E292E00E948E0860E0809117020E94FE
:1004E000590460E080911602CF91FF90EF90DF9069
:1004F000CF900C9459040E94BF0068EB71E086E233
:1005000092E00C94C4060E949F030E94AE01CCEBC3
:10051000D4E00E947B022097E1F30E94BC04F9CF53
:100520008230E8F4E82FF0E0EE0FFF1FE75EFD4FAA
:1005300071836083813041F0809169008C7F842BCE
:1005400080936900E89A089580916900440F551FCF
:10055000440F551F837F842B80936900E99A089587
:100560001F920F920FB60F9211242F933F934F9328
:100570005F936F937F938F939F93AF93BF93EF930B
:10058000FF938091190290911A02892B29F0E09132
:100590001902F0911A020995FF91EF91BF91AF9165
:1005A0009F918F917F916F915F914F913F912F918B
:1005B0000F900FBE0F901F9018951F920F920FB6BD
:1005C0000F9211242F933F934F935F936F937F93D9
:1005D0008F939F93AF93BF93EF93FF9380911B02F1
:1005E00090911C02892B29F0E0911B02F0911C02D2
:1005F0000995FF91EF91BF91AF919F918F917F915D
:100600006F915F914F913F912F910F900FBE0F907F
:100610001F9018951F920F920FB60F9211242F93CF
:100620003F938F939F93AF93BF9380911E029091BE
:100630001F02A0912002B091210230911D0223E0FF
:10064000230F2D3720F40196A11DB11D05C026E80A
:10065000230F0296A11DB11D20931D0280931E023F
:1006600090931F02A0932002B09321028091220256
:1006700090912302A0912402B09125020196A11D20
:10068000B11D8093220290932302A0932402B09381
:100690002502BF91AF919F918F913F912F910F9024
:1006A0000FBE0F901F9018953FB7F89480912202CB
:1006B00090912302A0912402B091250226B5A89B17
:1006C00005C02F3F19F00196A11DB11D3FBF662740
:1006D000782F892F9A2F620F711D811D911D42E085
:1006E000660F771F881F991F4A95D1F70895CF92FB
:1006F000DF92EF92FF92CF93DF936B017C010E9418
:100700005403EB01C114D104E104F10489F00E9407
:10071000910A0E9454036C1B7D0B683E734090F35A
:1007200081E0C81AD108E108F108C851DC4FEACFCE
:10073000DF91CF91FF90EF90DF90CF900895789464
:1007400084B5826084BD84B5816084BD85B58260D6
:1007500085BD85B5816085BDEEE6F0E08081816074
:100760008083E1E8F0E01082808182608083808174
:1007700081608083E0E8F0E0808181608083E1EB4C
:10078000F0E0808184608083E0EBF0E08081816034
:100790008083EAE7F0E080818460808380818260EA
:1007A00080838081816080838081806880831092D3
:1007B000C10008958E3008F08E50877020910E0190
:1007C00090E4299F90011124822B80937C008091DA
:1007D0007A00806480937A0080917A0086FDFCCF55
:1007E000809178002091790090E0922B08958330D9
:1007F00081F028F4813099F08230A1F0089587309B
:10080000A9F08830B9F08430D1F4809180008F7DD8
:1008100003C0809180008F7780938000089584B515
:100820008F7702C084B58F7D84BD08958091B0001C
:100830008F7703C08091B0008F7D8093B0000895C2
:10084000CF93DF9390E0FC01E458FF4F2491FC012B
:10085000E057FF4F8491882349F190E0880F991F5A
:10086000FC01E255FF4FA591B4918C559F4FFC01BF
:10087000C591D4919FB7611108C0F8948C912095CF
:1008800082238C93888182230AC0623051F4F894C9
:100890008C91322F309583238C938881822B88838F
:1008A00004C0F8948C91822B8C939FBFDF91CF91E1
:1008B00008950F931F93CF93DF931F92CDB7DEB7A9
:1008C000282F30E0F901E859FF4F8491F901E458ED
:1008D000FF4F1491F901E057FF4F04910023C9F035
:1008E000882321F069830E94F7036981E02FF0E0FB
:1008F000EE0FFF1FEC55FF4FA591B4919FB7F894F1
:100900008C91611103C01095812301C0812B8C93C0
:100910009FBF0F90DF91CF911F910F910895FC0120
:10092000818D228D90E0805C9F4F821B91098F7397
:1009300099270895FC01918D828D981731F0828D51
:10094000E80FF11D858D90E008958FEF9FEF0895DA
:10095000FC01918D828D981761F0828DDF01A80FC7
:10096000B11D5D968C91928D9F5F9F73928F90E0E9
:1009700008958FEF9FEF08958CE296E0892B49F060
:1009800080E090E0892B29F00E942C0681110C94C4
:1009900000000895FC01848DDF01A80FB11DA35A4A
:1009A000BF4F2C91848D90E001968F739927848F8F
:1009B000A689B7892C93A089B1898C9180648C9386
:1009C000938D848D981306C00288F389E02D808171
:1009D0008F7D80830895CF93DF93EC01888D8823EA
:1009E000C9F0EA89FB89808185FD05C0A889B9899C
:1009F0008C9186FD0FC00FB607FCF5CF808185FF77
:100A0000F2CFA889B9898C9185FFEDCFCE010E94E4
:100A1000CA04E7CFDF91CF910895CF92DF92FF9282
:100A20000F931F93CF93DF931F92CDB7DEB76C0167
:100A300081E0D60158968C9358975B969C915B9772
:100A40005C968C915C97981307C05096ED91FC9141
:100A50005197808185FD2EC0F601038D10E00F5F58
:100A60001F4F0F731127F02EF601848DF81211C05D
:100A70000FB607FCF9CFD6015096ED91FC91519736
:100A8000808185FFF1CFC60169830E94CA04698114
:100A9000EBCF838DE80FF11DE35AFF4F6083D60142
:100AA0005B960C935B975296ED91FC9153978081E6
:100AB00080620CC0D6015696ED91FC9157976083E9
:100AC0005096ED91FC91519780818064808381E004
:100AD00090E00F90DF91CF911F910F91FF90DF90E9
:100AE000CF900895BF92CF92DF92EF92FF92CF9373
:100AF000DF93EC016A017B01B22EE889F98982E07B
:100B00008083411581EE580761057105A1F060E011
:100B100079E08DE390E0A70196010E94D90C215065
:100B20003109410951095695479537952795211562
:100B300080E1380798F0E889F989108260E874E864
:100B40008EE190E0A70196010E94D90C2150310955
:100B5000410951095695479537952795EC85FD85AF
:100B60003083EE85FF852083188EEC89FD89B08265
:100B7000EA89FB89808180618083EA89FB898081A1
:100B800088608083EA89FB89808180688083EA8924
:100B9000FB8980818F7D8083DF91CF91FF90EF90E3
:100BA000DF90CF90BF9008951F920F920FB60F92D3
:100BB00011242F938F939F93EF93FF93E09136022D
:100BC000F09137028081E0913C02F0913D0282FD7C
:100BD00012C0908180913F028F5F8F7320914002FD
:100BE000821751F0E0913F02F0E0EA5DFD4F958FF2
:100BF00080933F0201C08081FF91EF919F918F917F
:100C00002F910F900FBE0F901F9018951F920F926B
:100C10000FB60F9211242F933F934F935F936F93CF
:100C20007F938F939F93AF93BF93EF93FF9386E24E
:100C300092E00E94CA04FF91EF91BF91AF919F9102
:100C40008F917F916F915F914F913F912F910F9075
:100C50000FBE0F901F90189586E292E00E948F04BD
:100C600021E0892B09F420E0822F089510922902B7
:100C70001092280288EE93E0A0E0B0E080932A0270
:100C800090932B02A0932C02B0932D0286EC91E05E
:100C9000909327028093260285EC90E09093330294
:100CA0008093320284EC90E090933502809334027A
:100CB00080EC90E0909337028093360281EC90E0D4
:100CC000909339028093380282EC90E090933B023B
:100CD00080933A0286EC90E090933D0280933C0230
:100CE00010923F0210924002109241021092420272
:100CF0000895CF92DF92EF92FF920F931F93CF93BD
:100D0000DF936C017A01EB01E60EF71E00E010E0C4
:100D1000CE15DF0561F06991D601ED91FC9101904E
:100D2000F081E02DC6010995080F191FF1CFC80108
:100D3000DF91CF911F910F91FF90EF90DF90CF90B7
:100D400008956115710581F0DB010D900020E9F730
:100D5000AD0141505109461B570BDC01ED91FC914F
:100D60000280F381E02D099480E090E008950C94D6
:100D7000A106DC01ED91FC910190F081E02D099438
:100D800062ED71E00C94A1060F931F93CF93DF9354
:100D9000EC010E94A1068C01CE010E94C006800FCA
:100DA000911FDF91CF911F910F9108958F929F9284
:100DB000AF92BF92CF92DF92EF92FF920F931F9369
:100DC000CF93DF93CDB7DEB7A1970FB6F894DEBF10
:100DD0000FBECDBF7C01C42EE52FCB01D22E19A2B0
:100DE00021E02D1510F02AE0D22E8E010F5D1F4F4D
:100DF0008D2C912CA12CB12C6C2D7E2FA501940152
:100E00000E94D90C8C2DD29E8019112401501109F9
:100E10008A3014F4805D01C0895CF801808321155B
:100E200031054105510521F0C22EE32FCA01E4CF5F
:100E3000B801C7010E94A106A1960FB6F894DEBFC3
:100E40000FBECDBFDF91CF911F910F91FF90EF901B
:100E5000DF90CF90BF90AF909F908F900895CF92EA
:100E6000DF92EF92FF920F931F93CF93DF93EC01EA
:100E70006A017B012115310579F4E881F98101903E
:100E8000F081E02D642FDF91CF911F910F91FF90A2
:100E9000EF90DF90CF9009942A303105E9F477FF85
:100EA0001AC06DE20E94B9068C0144275527BA0189
:100EB0004C195D096E097F092AE0CE010E94D60611
:100EC000800F911FDF91CF911F910F91FF90EF90B5
:100ED000DF90CF9008952AE0B701A601CE01DF91FF
:100EE000CF911F910F91FF90EF90DF90CF900C94D6
:100EF000D6060F931F93CF93DF93EC019A01AB01BA
:100F0000662757FD6095762F0E942F078C01CE0132
:100F10000E94C006800F911FDF91CF911F910F910A
:100F200008950F931F93CF93DF93EC010E942F0737
:100F30008C01CE010E94C006800F911FDF91CF91DE
:100F40001F910F9108954F925F926F927F928F92AF
:100F50009F92AF92BF92CF92DF92EF92FF920F9348
:100F60001F93CF93DF93EC016A017B01B22E9A01AC
:100F7000AB01C701B6010E94AD0C882319F065EDE5
:100F800071E027C026013701E89477F82FEF3FEF93
:100F90004FE75FE7C301B2010E94AD0C81110DC0A4
:100FA0002FEF3FEF4FE75FE7C301B2010E94F70A5F
:100FB00018161CF469ED71E00CC02FEF3FEF4FE7FE
:100FC0005FE4C701B6010E94460C1816ACF46DED43
:100FD00071E0CE01DF91CF911F910F91FF90EF90C3
:100FE000DF90CF90BF90AF909F908F907F906F9049
:100FF0005F904F900C94A1062FEF3FEF4FE75FEC0F
:10100000C701B6010E94F70A87FDE1CF20E030E07A
:10101000A901C701B6010E94F70A87FF0AC06DE265
:10102000CE010E94B9068C01F7FAF094F7F8F0941B
:1010300002C000E010E0A12C60E070E080E09FE3DF
:10104000AB1441F020E030E040E251E40E94FB0AA2
:10105000A394F6CF9B01AC01C701B6010E94930A8D
:101060006B017C010E94680B2B013C010E94940BD8
:101070009B01AC01C701B6010E94920A6B017C0181
:101080002AE0B301A201CE010E94D606080F191F63
:10109000BB2039F061EE71E0CE010E94A106080F7D
:1010A000191F7B2C772041F120E030E040E251E431
:1010B000C701B6010E944A0C6B017C010E94630BC0
:1010C0004B01AA2497FCA094BA2C2AE030E0B50189
:1010D000A401CE010E942F07080F191FC501B401FA
:1010E0000E94960B9B01AC01C701B6010E94920AB7
:1010F0006B017C017A94D6CFC801DF91CF911F910B
:101100000F91FF90EF90DF90CF90BF90AF909F90A6
:101110008F907F906F905F904F9008950F931F93E3
:10112000CF93DF93EC010E94A3078C01CE010E94B4
:10113000C006800F911FDF91CF911F910F910895ED
:101140008091F20290E02091F302821B91090895B0
:101150002091F3028091F202281750F4E22FF0E080
:10116000EC50FD4F808190E02F5F2093F3020895B3
:101170008FEF9FEF0895E091F3028091F202E8175C
:1011800030F4F0E0EC50FD4F808190E008958FEF57
:101190009FEF08950895CF92DF92EF92FF920F9301
:1011A0001F93CF93DF937C01CB018A012091CF0263
:1011B000222389F0EB016B01C40ED51ECC15DD0591
:1011C00069F06991D701ED91FC910190F081E02DDA
:1011D000C7010995F3CF642F0E943B09C801DF9135
:1011E000CF911F910F91FF90EF90DF90CF900895D6
:1011F000CF93DF931F92CDB7DEB769832091CF02E3
:101200002223D1F02091D002203240F021E030E0C2
:10121000FC013383228380E090E015C08091D102ED
:10122000E82FF0E0EE52FD4F998190838F5F80931D
:10123000D1028093D00205C061E0CE0101960E94E8
:101240003B0981E090E00F90DF91CF910895FC0180
:101250001382128248EE53E060E070E044835583CD
:101260006683778387EE91E091838083089583EC92
:1012700092E00C942709613298F420918103243084
:1012800089F460933603FC0188E393E0DC012A2FA4
:10129000281B261718F421912D93F9CF80E008958B
:1012A00081E0089582E0089585ED8093BC008091EF
:1012B000BC0084FDFCCF10928103089585EC8093DF
:1012C000BC001092810308951F920F920FB60F92E7
:1012D00011242F933F934F935F936F937F938F933B
:1012E0009F93AF93BF93EF93FF938091B900887F53
:1012F000803609F49CC068F5883209F45BC090F42C
:10130000803109F454C038F4882309F4F5C08830DA
:1013100009F44DC0F5C0883109F44CC0803209F49D
:101320005DC0EEC0803409F468C048F4803309F42D
:1013300055C0883309F0E4C080931403A8C08035F9
:1013400009F44FC0883509F45DC0883409F0D8C06D
:10135000D5C0883909F4C6C0A8F4883709F467C035
:1013600038F4883609F463C0803709F460C0C8C017
:10137000883809F4B7C0803909F45FC0803809F0B3
:10138000BFC05BC0803B09F485C038F4803A09F4E3
:1013900066C0883A09F47EC0B3C0803C09F4A6C098
:1013A000883C09F4A3C0883B09F489C0A9C0809196
:1013B000800310C09091590380915803981770F5DD
:1013C000E091590381E08E0F80935903F0E0E65AD3
:1013D000FC4F80818093BB0085EC85C08093140313
:1013E0008DC0E091590381E08E0F80935903809165
:1013F000BB00F0E0E65AFC4F808390915903809146
:1014000058036DC0E091590381E08E0F809359031A
:101410008091BB00F0E0E65AFC4F808380917F030F
:1014200081116CC081E080937E0384EA60C083E018
:101430008093810310921503CFCF809115038032E2
:1014400008F050C0E091150381E08E0F80931503E2
:101450008091BB00F0E0EA5EFC4F8083BDCF8091BD
:101460001503803230F4E0911503F0E0EA5EFC4FA2
:1014700010820E9454096091150370E0E0917A0394
:10148000F0917B0386E193E00995109215030E9489
:101490005E0936C084E08093810310923703109276
:1014A0003603E0917C03F0917D030995809136032A
:1014B000811105C081E08093360310923803E091DA
:1014C000370381E08E0F80933703F0E0E85CFC4F38
:1014D00080818093BB0090913703809136039817E9
:1014E00008F47ACF85E88093BC000AC085EC80932D
:1014F000BC001092810304C0109214030E9454098E
:10150000FF91EF91BF91AF919F918F917F916F91DB
:101510005F914F913F912F910F900FBE0F901F90B1
:10152000189508955058BB27AA270ED075C166D1CB
:1015300030F06BD120F031F49F3F11F41EF45BC109
:101540000EF4E095E7FB51C1E92F77D180F3BA178C
:10155000620773078407950718F071F49EF58FC131
:101560000EF4E0950B2EBA2FA02D0B01B9019001BE
:101570000C01CA01A0011124FF27591B99F0593F02
:1015800050F4503E68F11A16F040A22F232F342F4A
:101590004427585FF3CF469537952795A795F04098
:1015A0005395C9F77EF41F16BA0B620B730B840BAD
:1015B000BAF09150A1F0FF0FBB1F661F771F881F65
:1015C000C2F70EC0BA0F621F731F841F48F48795BD
:1015D00077956795B795F7959E3F08F0B3CF9395AC
:1015E000880F08F09927EE0F979587950895D9D021
:1015F00008F481E008950CD00FC107D140F0FED06F
:1016000030F021F45F3F19F0F0C0511139C1F3C03F
:1016100014D198F39923C9F35523B1F3951B550BB6
:10162000BB27AA2762177307840738F09F5F5F4FB5
:10163000220F331F441FAA1FA9F333D00E2E3AF0F6
:10164000E0E830D091505040E695001CCAF729D010
:10165000FE2F27D0660F771F881FBB1F261737075F
:101660004807AB07B0E809F0BB0B802DBF01FF278F
:1016700093585F4F2AF09E3F510568F0B6C000C1F5
:101680005F3FECF3983EDCF3869577956795B795C9
:10169000F7959F5FC9F7880F911D9695879597F9E4
:1016A0000895E1E0660F771F881FBB1F621773075D
:1016B0008407BA0720F0621B730B840BBA0BEE1F72
:1016C00088F7E095089504D06894B111D9C00895C1
:1016D000BCD088F09F5790F0B92F9927B751A0F050
:1016E000D1F0660F771F881F991F1AF0BA95C9F7B6
:1016F00012C0B13081F0C3D0B1E00895C0C0672FEF
:10170000782F8827B85F39F0B93FCCF38695779565
:101710006795B395D9F73EF490958095709561954E
:101720007F4F8F4F9F4F0895E89409C097FB3EF479
:1017300090958095709561957F4F8F4F9F4F99231E
:10174000A9F0F92F96E9BB279395F695879577959C
:101750006795B795F111F8CFFAF4BB0F11F460FF5C
:101760001BC06F5F7F4F8F4F9F4F16C0882311F0B4
:1017700096E911C0772321F09EE8872F762F05C0C8
:10178000662371F096E8862F70E060E02AF09A9563
:10179000660F771F881FDAF7880F9695879597F958
:1017A0000895990F0008550FAA0BE0E8FEEF1616F2
:1017B0001706E807F907C0F012161306E407F50745
:1017C00098F0621B730B840B950B39F40A2661F0B9
:1017D000232B242B252B21F408950A2609F4A1405C
:1017E000A6958FEF811D811D089597F99F6780E869
:1017F00070E060E008959FEF80EC089500240A9463
:101800001616170618060906089500240A941216DB
:101810001306140605060895092E0394000C11F40E
:10182000882352F0BB0F40F4BF2B11F460FF04C0BB
:101830006F5F7F4F8F4F9F4F089557FD9058440F14
:10184000551F59F05F3F71F04795880F97FB991F1F
:1018500061F09F3F79F087950895121613061406DC
:10186000551FF2CF4695F1DF08C016161706180669
:10187000991FF1CF86957105610508940895E89444
:10188000BB2766277727CB0197F908958ADF08F4ED
:101890008FEF08950BD0C0CFB1DF28F0B6DF18F07E
:1018A000952309F0A2CFA7CF1124EACFC6DFA0F37A
:1018B000959FD1F3950F50E0551F629FF001729FE5
:1018C000BB27F00DB11D639FAA27F00DB11DAA1F04
:1018D000649F6627B00DA11D661F829F2227B00D51
:1018E000A11D621F739FB00DA11D621F839FA00DDC
:1018F000611D221F749F3327A00D611D231F849F2C
:10190000600D211D822F762F6A2F11249F57504082
:101910008AF0E1F088234AF0EE0FFF1FBB1F661F1D
:10192000771F881F91505040A9F79E3F510570F0D6
:101930005CCFA6CF5F3FECF3983EDCF386957795BE
:101940006795B795F795E7959F5FC1F7FE2B880FD1
:10195000911D9695879597F9089523DF880B990B2C
:101960000895AA1BBB1B51E107C0AA1FBB1FA617E6
:10197000B70710F0A61BB70B881F991F5A95A9F738
:1019800080959095BC01CD01089597FB072E16F424
:10199000009407D077FD09D00E94B10C07FC05D058
:1019A0003EF4909581959F4F0895709561957F4F76
:1019B0000895A1E21A2EAA1BBB1BFD010DC0AA1F90
:1019C000BB1FEE1FFF1FA217B307E407F50720F0A8
:1019D000A21BB30BE40BF50B661F771F881F991F23
:1019E0001A9469F760957095809590959B01AC016C
:1019F000BD01CF010895052E97FB1EF400940E94AF
:101A0000120D57FD07D00E94D90C07FC03D04EF4ED
:101A10000C94120D50954095309521953F4F4F4FA6
:101A20005F4F089590958095709561957F4F8F4F8A
:101A30009F4F0895EE0FFF1F0590F491E02D09943C
:041A4000F894FFCF48
:101A4400000082038000022B873D00008040015289
:101A54006F746174696F6E2050686F746F63656C26
:101A64006C20696E74657272757074656400537469
:101A74006F702050686F746F63656C6C20696E744E
:101A84006572727570746564006D656173757265F5
:101A940064206E6F7720286D41293A20004D6561DE
:101AA4007375726564206176672E20616674657251
:101AB40020312073656320286D41293A2000546841
:101AC40069732069732078436F6465207465737447
:101AD400207769746820656D62656458636F646516
:101AE40000457374696D617465206F66667365740F
:101AF40020286D56293A2000636C6F636B776973F5
:101B04006500000000000D0579068F04A8049A04FE
:101B1400EB040D0A006E616E00696E66006F7666F6
:101B2400002E0000000000F808CB08A008A808BB9D
:041B340008CA0800D3
:00000001FF
