:100000000C946E000C94EC070C9419080C94960058
:100010000C9496000C9496000C9496000C94960008
:100020000C9496000C9496000C9496000C949600F8
:100030000C9496000C9496000C9496000C949600E8
:100040000C9446080C9496000C94500B0C94820B64
:100050000C9496000C9496000C9496000C949600C8
:100060000C94E20E0C9496000004060410041E0486
:100070002004260430043E0450045204000000080A
:10008000000201000003040700000000000000005F
:10009000010204081020408001020408102001021F
:1000A00004081020040404040404040402020202EC
:1000B00002020303030303030000000023002600E1
:1000C000290000000000250028002B00000000008F
:1000D000240027002A00AD07B20BB50E11241FBE65
:1000E000CFEFD8E0DEBFCDBF12E0A0E0B1E0E0E4AA
:1000F000F5E202C005900D92A234B107D9F723E0D2
:10010000A2E4B2E001C01D92AA3FB207E1F710E0FD
:10011000CCEDD0E004C02297FE010E949A12C63DA9
:10012000D107C9F70E94A0070C949E120C940000FE
:10013000FC0166834783208781E085870895CF93FC
:10014000DF93EC0160E08E810E94730961E08E8193
:100150000E94AC0919861A861B861C86DF91CF91F6
:1001600008954F925F926F927F928F929F92AF927B
:10017000BF92CF92DF92EF92FF920F931F93CF9394
:10018000DF93CDB7DEB728970FB6F894DEBF0FBE6A
:10019000CDBF6A017B01480159019A01AB01C7013A
:1001A000B6010E94C8112B013C01A5019401C501B3
:1001B000B4010E94C8116D837E838F83988721E1EB
:1001C00033E243E050E4C701B6010E94C81129E1BF
:1001D00034E849E252E40E94101069837A838B83E9
:1001E0009C8326E13BE442E251E4C501B4010E9454
:1001F000C8119B01AC0169817A818B819C810E942D
:10020000111069837A838B839C8328E436E246E667
:100210005EEBC701B6010E94C811A50194010E94BE
:10022000C8119B01AC0169817A818B819C810E94FC
:10023000111069837A838B839C8320EE3FE040EE2C
:100240005BEBC301B2010E94C8119B01AC01698143
:100250007A818B819C810E94111069837A838B83C0
:100260009C8328EF37E840E65DEB6D817E818F81CE
:1002700098850E94C8119B01AC0169817A818B81AC
:100280009C810E94111069837A838B839C832CEA62
:100290003DE041EA5AE3C301B2010E94C811A50141
:1002A00094010E94C8119B01AC0169817A818B8104
:1002B0009C810E9411104B015C0128EC3FE84FE546
:1002C0005AE3C701B6010E94C8112D813E814F81BA
:1002D00058850E94C8119B01AC01C501B4010E9460
:1002E00011106B017C0121EF3BE845E056EBC301A7
:1002F000B2010E94C8112D813E814F8158850E9414
:10030000C8119B01AC01C701B6010E9411102896CB
:100310000FB6F894DEBF0FBECDBFDF91CF911F9116
:100320000F91FF90EF90DF90CF90BF90AF909F9094
:100330008F907F906F905F904F900895DF92EF9233
:10034000FF920F931F93CF93DF93EC010E949008CD
:1003500009851A852B853C856017710782079307ED
:1003600020F419861A861B861C862D85211111C042
:1003700009851A852B853C85DC01CB01801B910BFF
:10038000A20BB30B803D9740A105B10510F481E0AD
:100390007BC01D860E94900869877A878B879C871F
:1003A0001C821B821A821982188261E08E810E944F
:1003B000AC096AEF70E080E090E00E94BF0861E065
:1003C0008E810E94730960E08E810E94AC0964E115
:1003D00070E080E090E00E94BF08F89461E08E81B8
:1003E0000E94AC0988E290E00E94E70860E08E81FC
:1003F0000E947309F12CD12C81E0E12C082F10E030
:100400008E810E94E2098017910741F4E39481E014
:1004100090E00E94E7088FEFE812F2CF8E810E94F1
:10042000E2099FEFE916C9F023E02F1590F4F0FCE4
:1004300010C09D2D969596959695FE01E90FF11D9C
:100440009081990F908328852E1510F491609083E8
:10045000D394F39495E5F912D0CF789427E22D1533
:1004600090F42C8130E04881898190E0840F911DC7
:100470004A81840F911D4B81840F911D9927281764
:10048000390709F484CF80E0DF91CF911F910F915C
:10049000FF90EF90DF900895CF92DF92EF92FF925E
:1004A0000F931F93CF93DF93EC01162F0E949E01B1
:1004B000882309F450C08F818B3031F008F44BC091
:1004C0008551823078F047C06A8170E080E090E02A
:1004D0000E941211112309F443C020E030E040E1F2
:1004E00051E42AC00A81602F6F7770E080E090E0CD
:1004F0000E94141120E030E040E853E40E94C8114B
:100500006B017C016B8170E080E090E00E9414112F
:100510009B01AC01C701B6010E94111020E030E040
:1005200040E251E40E94791007FD90581123D9F060
:1005300020E030E040E151E40E94C81120E030E0CA
:1005400040EA50E40E94791020E030E040E052E4BC
:100550000E94111008C020E030E040EC5FE705C0C9
:100560009B01AC0102C09B01AC01B901CA01DF9142
:10057000CF911F910F91FF90EF90DF90CF90089552
:10058000CF92DF92EF92FF92CF93DF93EC010E9424
:100590009E01882379F18F818B3029F158F18551A3
:1005A000823040F5688170E080E090E00E94121196
:1005B00020E030E040E853E40E94C8116B017C0168
:1005C000698170E080E090E00E9414119B01AC0111
:1005D000C701B6010E94111020E030E040E251E472
:1005E0000E9479100BC0688170E080E090E00E946A
:1005F000121104C060E070E080EC9FE7DF91CF91C2
:10060000FF90EF90DF90CF900895CF92DF92EF921E
:10061000FF921F93CF93DF93D82F162F56954795B0
:100620006A01E12CF12CC0E0C11791F061E08D2F3F
:100630000E94AC09C701B6010E94BF0860E08D2F7F
:100640000E94AC09C701B6010E94BF08CF5FECCF82
:10065000DF91CF911F91FF90EF90DF90CF900895A1
:10066000EF92FF920F931F93CF93DF93EC01842FB0
:100670001D861C861B821A8219821882188E198E7A
:100680001A8E1B8E798768874E875F87398B288BF8
:100690001B8B0A8BFD8AEC8A61E00E94730961E082
:1006A00088890E94730961E08A890E94730961E068
:1006B0008C890E9473091F8A1E8A84E090E09B87C0
:1006C0008A87DF91CF911F910F91FF90EF9008954E
:1006D000CF92DF92EF92FF92CF93DF93EC016A010A
:1006E0007B0128853985442737FD4095542F60E0EC
:1006F00077E883E993E00E947912CA01B901A70162
:1007000096010E9479122C833D834E835F83DF9193
:10071000CF91FF90EF90DF90CF9008950F931F93AC
:10072000CF93DF93EC018B018A859B850297F9F4C7
:100730006130710571F02CF461157105C1F460E050
:1007400009C06230710559F06330710581F460E0D1
:1007500007C061E08E850E94AC0961E005C061E0E0
:100760008E850E94AC0960E088890E94AC098A8568
:100770009B850497B9F501301105B1F04CF40115D2
:10078000110581F561E08E850E94AC0960E011C021
:1007900002301105B9F00330110521F561E08E85B5
:1007A0000E94AC0960E013C060E08E850E94AC0935
:1007B00061E088890E94AC0961E08A890E94AC09E5
:1007C00060E00DC060E08E850E94AC0961E0888920
:1007D0000E94AC0960E08A890E94AC0961E08C89C2
:1007E0000E94AC098A859B85059709F073C00A3081
:1007F000110508F06FC0F801EC5CFF4F0C949812E3
:1008000060E08E850E94AC0961E051C060E08E8599
:100810000E94AC0961E088890E94AC0960E04BC08D
:1008200060E08E850E94AC0961E088890E94AC0975
:1008300060E08A890E94AC0961E041C060E001C0CB
:1008400061E08E850E94AC0961E005C061E08E85A3
:100850000E94AC0960E088890E94AC0960E009C090
:1008600061E08E850E94AC0960E088890E94AC0935
:1008700061E08A890E94AC0961E00DC061E08E856B
:100880000E94AC0960E088890E94AC0961E08A8915
:100890000E94AC0960E08C890E94AC0960E013C042
:1008A00061E001C060E08E850E94AC0960E088894B
:1008B0000E94AC0961E08A890E94AC0960E08C89E1
:1008C0000E94AC0961E08E89DF91CF911F910F9159
:1008D0000C94AC09DF91CF911F910F9108954F9225
:1008E0005F926F927F928F929F92AF92BF92CF92C0
:1008F000DF92EF92FF920F931F93CF93DF93EC0160
:10090000CB0177FF04C088279927861B970B6C01C2
:10091000161617062CF481E090E09983888304C0B2
:10092000672B11F01982188204E010E08AE0E82EAB
:10093000F12CC114D10409F44AC00E949C08888C8F
:10094000998CAA8CBB8C2B013C01481859086A0869
:100950007B088C809D80AE80BF80481459046A0457
:100960007B0458F3688F798F8A8F9B8F2881398118
:100970008C859D852130310559F401969D878C87A2
:10098000288539858217930771F41D861C860BC054
:10099000892B21F4888599859D878C878C859D85F9
:1009A00001979D878C8781E0C81AD1082A853B85ED
:1009B0008C859D852530310511F4B70101C0B80142
:1009C0000E944312BC01CE010E948E03B2CFDF9180
:1009D000CF911F910F91FF90EF90DF90CF90BF903C
:1009E000AF909F908F907F906F905F904F90089501
:1009F00060E171E08EE992E00C94400C6FE271E0EE
:100A00008EE992E00C94400C0F931F93809190021A
:100A10000E942D09BC01882777FD8095982F0E94A0
:100A2000141120910B0130910C0140910D01509156
:100A30000E010E94C81120918502309186024091DA
:100A40008702509188020E9410100E94E1108827AE
:100A500077FD8095982F0E94141120910701309105
:100A600008014091090150910A010E9479100E94E9
:100A7000E11070938A02609389026AE471E08EE962
:100A800092E00E94330C6091890270918A024AE0E0
:100A900050E08EE992E00E94F50C10928A021092CA
:100AA00089021AE0809190020E942D09BC018827DA
:100AB00077FD8095982F0E94141120910B013091A1
:100AC0000C0140910D0150910E010E94C81120911E
:100AD00085023091860240918702509188020E94DF
:100AE00010102091070130910801409109015091A7
:100AF0000A010E9479100E94E11020918902309130
:100B00008A02260F371F30938A02209389026AE0F7
:100B100070E080E090E00E94BF08115019F68091CB
:100B2000890290918A026AE070E00E9443127093F9
:100B30008A0260938902E0917002F0E0EE0FFF1FDD
:100B4000EF58FD4F7183608300916C0210916D022C
:100B500020916E0230916F02E1E7F2E061917191B4
:100B6000882777FD8095982F600F711F821F931F34
:100B700022E0E538F20719F08B019C01EFCF2AE063
:100B800030E040E050E00E94791220936C023093F4
:100B90006D0240936E0250936F026EE571E08EE934
:100BA00092E00E94330C40916C0250916D02609172
:100BB0006E0270916F022AE030E08EE992E00E94AE
:100BC0000D0D80917002893020F48F5F8093700248
:100BD00002C01092700268EE73E080E090E01F9116
:100BE0000F910C94BF0866E871E08EE992E00E94D4
:100BF000400C6091060170E080E592E00E946F0475
:100C000064EF71E080E090E00E94BF086FE771E060
:100C10008EE992E00E94400C6091060170E07195AF
:100C20006195710980E592E00E946F0464EF71E0C4
:100C300080E090E00C94BF084F925F926F927F9299
:100C40008F929F92AF92BF92CF92DF92EF92FF92DC
:100C50000F931F9360ED77E080E090E00E94BF0863
:100C600082E492E00E94C0026B017C0160E082E4B9
:100C700092E00E944C024B015C0161E082E492E050
:100C80000E944C022B013C01A7019601C701B6014D
:100C90000E942B12811110C0A5019401C501B4015D
:100CA0000E942B12811108C0A3019201C301B2015D
:100CB0000E942B12882319F060E971E050C097015F
:100CC0008601B301A20182E492E00E94B1002B01EF
:100CD0003C0160EB71E08EE992E00E94330C22E06F
:100CE00030E0B701A6018EE992E00E940A0E6BEC9B
:100CF00071E08EE992E00E94330C6BEB71E08EE9BB
:100D000092E00E94330C22E030E0B501A4018EE9AC
:100D100092E00E940A0E69EC71E08EE992E00E9476
:100D2000330C6FEC71E08EE992E00E94330C20E00E
:100D300030E040E052E4C301B2010E94101026E608
:100D400036E646EE5FE30E947910AB01BC0122E07B
:100D500030E08EE992E00E940A0E6CED71E08EE9BF
:100D600092E01F910F91FF90EF90DF90CF90BF9096
:100D7000AF909F908F907F906F905F904F900C946A
:100D8000400CCF92DF92EF92FF92CF9326E040E8A3
:100D900055E260E070E08EE992E00E94EE0A6FEDAD
:100DA00071E08EE992E00E94400C8EE08093900208
:100DB00082E080938C0283E080938D0285E08093B3
:100DC0008F0286E080938E028DE080938B0262E03A
:100DD00082E00E94730962E080918D020E94730993
:100DE00061E080918F020E94730961E080918E0220
:100DF0000E94730961E080918B020E94730943E0B5
:100E000050E06EEF74E080918C020E94CC0743E0CA
:100E100050E068EF74E080918D020E94CC074CE3B3
:100E200050E060E070E080E592E00E94680382E4B8
:100E300092E00E949F0060E080918F020E94AC09C6
:100E400060E080918E020E94AC0961E080918F0287
:100E50000E94AC0961E080918E020E94AC0944EFCF
:100E600051E065E080918B020E940503CAEFC090BB
:100E70008502D0908602E0908702F09088028091EF
:100E800090020E942D09BC01882777FD8095982F3C
:100E90000E94141120910B0130910C0140910D0121
:100EA00050910E010E94C81120E030E04AE753E45F
:100EB0000E9479109B01AC01C701B6010E9411107C
:100EC00060938502709386028093870290938802D4
:100ED0006AE070E080E090E00E94BF08C15039F6FF
:100EE00044EF51E065E080918B020E9405036AEFB8
:100EF00071E08EE992E00E94330C4091850250919E
:100F00008602609187027091880222E030E08EE9CB
:100F100092E00E940C0E60E080918F020E94AC096A
:100F200060E080918E02CF91FF90EF90DF90CF90A4
:100F30000C94AC090E9404050E94F3050C941C0655
:100F40000E94F2080E94C106C8E3DAE00E949A07F4
:100F50002097E1F30E94380AF9CFEF92FF920F93A6
:100F60001F936091060170E05BE0E52EF12C0AE032
:100F700010E029E030E048E050E080E592E00E9497
:100F8000300326E04BE067E082E492E01F910F918E
:100F9000FF90EF900C9498008230E8F4E82FF0E096
:100FA000EE0FFF1FEF56FD4F71836083813041F0DC
:100FB000809169008C7F842B80936900E89A089562
:100FC00080916900440F551F440F551F837F842B68
:100FD00080936900E99A08951F920F920FB60F92BD
:100FE00011242F933F934F935F936F937F938F932E
:100FF0009F93AF93BF93EF93FF9380919102909152
:101000009202892B29F0E0919102F09192020995C8
:10101000FF91EF91BF91AF919F918F917F916F91D0
:101020005F914F913F912F910F900FBE0F901F90A6
:1010300018951F920F920FB60F9211242F933F9382
:101040004F935F936F937F938F939F93AF93BF93D0
:10105000EF93FF938091930290919402892B29F052
:10106000E0919302F09194020995FF91EF91BF9165
:10107000AF919F918F917F916F915F914F913F9130
:101080002F910F900FBE0F901F9018951F920F92E7
:101090000FB60F9211242F933F938F939F93AF938B
:1010A000BF938091960290919702A0919802B0917F
:1010B00099023091950223E0230F2D3720F40196F9
:1010C000A11DB11D05C026E8230F0296A11DB11D6B
:1010D000209395028093960290939702A093980292
:1010E000B093990280919A0290919B02A0919C02E8
:1010F000B0919D020196A11DB11D80939A0290931B
:101100009B02A0939C02B0939D02BF91AF919F91CF
:101110008F913F912F910F900FBE0F901F901895B8
:101120002FB7F8946091960270919702809198027F
:10113000909199022FBF08953FB7F89480919A0239
:1011400090919B02A0919C02B0919D0226B5A89B14
:1011500005C02F3F19F00196A11DB11D3FBF6627A5
:10116000782F892F9A2F620F711D811D911D42E0EA
:10117000660F771F881F991F4A95D1F70895CF9260
:10118000DF92EF92FF92CF93DF936B017C010E947D
:101190009C08EB01C114D104E104F10489F00E9420
:1011A0000F100E949C086C1B7D0B683E734090F3EF
:1011B00081E0C81AD108E108F108C851DC4FEACF34
:1011C000DF91CF91FF90EF90DF90CF900895823024
:1011D000910538F0880F991F880F991F059701977F
:1011E000F1F70895789484B5826084BD84B58160F8
:1011F00084BD85B5826085BD85B5816085BDEEE61F
:10120000F0E0808181608083E1E8F0E010828081FD
:1012100082608083808181608083E0E8F0E080816B
:1012200081608083E1EBF0E0808184608083E0EB8B
:10123000F0E0808181608083EAE7F0E08081846073
:1012400080838081826080838081816080838081CF
:10125000806880831092C10008958E3008F08E500F
:10126000877020910F0190E4299F90011124822B17
:1012700080937C0080917A00806480937A008091D2
:101280007A0086FDFCCF809178002091790090E073
:10129000922B0895833081F028F4813099F08230C8
:1012A000A1F008958730A9F08830B9F08430D1F4E6
:1012B000809180008F7D03C0809180008F77809324
:1012C0008000089584B58F7702C084B58F7D84BD7A
:1012D00008958091B0008F7703C08091B0008F7D1A
:1012E0008093B0000895CF93DF9390E0FC01E05726
:1012F000FF4F2491FC01EC55FF4F8491882349F165
:1013000090E0880F991FFC01E453FF4FA591B49121
:101310008E539F4FFC01C591D4919FB7611108C0B6
:10132000F8948C91209582238C93888182230AC023
:10133000623051F4F8948C91322F309583238C9342
:101340008881822B888304C0F8948C91822B8C93A3
:101350009FBFDF91CF9108950F931F93CF93DF939A
:101360001F92CDB7DEB7282F30E0F901E458FF4FC8
:101370008491F901E057FF4F1491F901EC55FF4FAB
:1013800004910023C9F0882321F069830E944A094F
:101390006981E02FF0E0EE0FFF1FEE53FF4FA591A4
:1013A000B4919FB7F8948C91611103C0109581237B
:1013B00001C0812B8C939FBF0F90DF91CF911F9124
:1013C0000F910895CF93DF93282F30E0F901E4586F
:1013D000FF4F8491F901E057FF4FD491F901EC558B
:1013E000FF4FC491CC2391F081110E944A09EC2F48
:1013F000F0E0EE0FFF1FE854FF4FA591B4912C9140
:101400002D2381E090E021F480E002C080E090E0B4
:10141000DF91CF910895FC01818D228D90E0805C59
:101420009F4F821B91098F7399270895FC01918D1D
:10143000828D981731F0828DE80FF11D858D90E037
:1014400008958FEF9FEF0895FC01918D828D98177D
:1014500061F0828DDF01A80FB11D5D968C91928D98
:101460009F5F9F73928F90E008958FEF9FEF089595
:1014700088EA9BE0892B49F080E090E0892B29F0F5
:101480000E94A80B81110C9400000895FC01848D2A
:10149000DF01A80FB11DA35ABF4F2C91848D90E09E
:1014A00001968F739927848FA689B7892C93A08979
:1014B000B1898C9180648C93938D848D981306C030
:1014C0000288F389E02D80818F7D80830895CF93FA
:1014D000DF93EC01888D8823C9F0EA89FB8980813C
:1014E00085FD05C0A889B9898C9186FD0FC00FB60E
:1014F00007FCF5CF808185FFF2CFA889B9898C914F
:1015000085FFEDCFCE010E94460AE7CFDF91CF9154
:101510000895CF92DF92FF920F931F93CF93DF93A3
:101520001F92CDB7DEB76C0181E0D60158968C933F
:1015300058975B969C915B975C968C915C979813FF
:1015400007C05096ED91FC915197808185FD2EC08A
:10155000F601038D10E00F5F1F4F0F731127F02E60
:10156000F601848DF81211C00FB607FCF9CFD60131
:101570005096ED91FC915197808185FFF1CFC60186
:1015800069830E94460A6981EBCF838DE80FF11DC4
:10159000E35AFF4F6083D6015B960C935B9752969C
:1015A000ED91FC915397808180620CC0D6015696D4
:1015B000ED91FC91579760835096ED91FC91519776
:1015C00080818064808381E090E00F90DF91CF91F3
:1015D0001F910F91FF90DF90CF900895BF92CF920F
:1015E000DF92EF92FF92CF93DF93EC016A017B01D0
:1015F000B22EE889F98982E08083411581EE58078F
:1016000061057105A1F060E079E08DE390E0A7014C
:1016100096010E94571221503109410951095695EE
:10162000479537952795211580E1380798F0E88987
:10163000F989108260E874E88EE190E0A7019601D4
:101640000E94571221503109410951095695479579
:1016500037952795EC85FD853083EE85FF852083C2
:10166000188EEC89FD89B082EA89FB8980818061CE
:101670008083EA89FB89808188608083EA89FB898D
:10168000808180688083EA89FB8980818F7D808367
:10169000DF91CF91FF90EF90DF90CF90BF900895B2
:1016A0001F920F920FB60F9211242F938F939F9337
:1016B000EF93FF93E091AE02F091AF028081E09151
:1016C000B402F091B50282FD12C090818091B70200
:1016D0008F5F8F732091B802821751F0E091B702AB
:1016E000F0E0E256FD4F958F8093B70201C08081F4
:1016F000FF91EF919F918F912F910F900FBE0F90BF
:101700001F9018951F920F920FB60F9211242F93CE
:101710003F934F935F936F937F938F939F93AF9379
:10172000BF93EF93FF938EE992E00E94460AFF91E8
:10173000EF91BF91AF919F918F917F916F915F9149
:101740004F913F912F910F900FBE0F901F901895C2
:101750008EE992E00E940B0A21E0892B09F420E037
:10176000822F08951092A1021092A00288EE93E0B9
:10177000A0E0B0E08093A2029093A302A093A40201
:10178000B093A50285E192E090939F0280939E0220
:1017900085EC90E09093AB028093AA0284EC90E0F9
:1017A0009093AD028093AC0280EC90E09093AF02F6
:1017B0008093AE0281EC90E09093B1028093B002EE
:1017C00082EC90E09093B3028093B20286EC90E0BA
:1017D0009093B5028093B4021092B7021092B802AF
:1017E0001092B9021092BA020895CF92DF92EF924E
:1017F000FF920F931F93CF93DF936C017A01EB015C
:10180000E60EF71E00E010E0CE15DF0561F06991ED
:10181000D601ED91FC910190F081E02DC601099572
:10182000080F191FF1CFC801DF91CF911F910F91C0
:10183000FF90EF90DF90CF9008956115710581F0D2
:10184000DB010D900020E9F7AD0141505109461B25
:10185000570BDC01ED91FC910280F381E02D09949E
:1018600080E090E008950C941D0CDC01ED91FC915A
:101870000190F081E02D099461E272E00C941D0C5E
:101880000F931F93CF93DF93EC010E941D0C8C01EB
:10189000CE010E943C0C800F911FDF91CF911F91D0
:1018A0000F9108958F929F92AF92BF92CF92DF9245
:1018B000EF92FF920F931F93CF93DF93CDB7DEB7D5
:1018C000A1970FB6F894DEBF0FBECDBF7C01C42E2A
:1018D000E52FCB01D22E19A221E02D1510F02AE020
:1018E000D22E8E010F5D1F4F8D2C912CA12CB12C6F
:1018F0006C2D7E2FA50194010E9457128C2DD29E33
:1019000080191124015011098A3014F4805D01C03E
:10191000895CF8018083211531054105510521F0CD
:10192000C22EE32FCA01E4CFB801C7010E941D0CEB
:10193000A1960FB6F894DEBF0FBECDBFDF91CF9159
:101940001F910F91FF90EF90DF90CF90BF90AF90DD
:101950009F908F900895CF92DF92EF92FF920F9316
:101960001F93CF93DF93EC016A017B0121153105B1
:1019700079F4E881F9810190F081E02D642FDF9105
:10198000CF911F910F91FF90EF90DF90CF9009942E
:101990002A303105E9F477FF1AC06DE20E94350C58
:1019A0008C0144275527BA014C195D096E097F093E
:1019B0002AE0CE010E94520C800F911FDF91CF913F
:1019C0001F910F91FF90EF90DF90CF9008952AE044
:1019D000B701A601CE01DF91CF911F910F91FF902A
:1019E000EF90DF90CF900C94520C0F931F93CF93F6
:1019F000DF93EC019A01AB01662757FD6095762FC6
:101A00000E94AB0C8C01CE010E943C0C800F911FF8
:101A1000DF91CF911F910F9108950F931F93CF9353
:101A2000DF93EC010E94AB0C8C01CE010E943C0CB8
:101A3000800F911FDF91CF911F910F9108954F92C9
:101A40005F926F927F928F929F92AF92BF92CF924E
:101A5000DF92EF92FF920F931F93CF93DF93EC01EE
:101A60006A017B01B22E9A01AB01C701B6010E9447
:101A70002B12882319F064E272E027C02601370197
:101A8000E89477F82FEF3FEF4FE75FE7C301B2012C
:101A90000E942B1281110DC02FEF3FEF4FE75FE740
:101AA000C301B2010E94751018161CF468E272E0BE
:101AB0000CC02FEF3FEF4FE75FE4C701B6010E9474
:101AC000C4111816ACF46CE272E0CE01DF91CF9134
:101AD0001F910F91FF90EF90DF90CF90BF90AF904C
:101AE0009F908F907F906F905F904F900C941D0C03
:101AF0002FEF3FEF4FE75FECC701B6010E94751073
:101B000087FDE1CF20E030E0A901C701B6010E94C6
:101B1000751087FF0AC06DE2CE010E94350C8C0162
:101B2000F7FAF094F7F8F09402C000E010E0A12C6E
:101B300060E070E080E09FE3AB1441F020E030E033
:101B400040E251E40E947910A394F6CF9B01AC01CE
:101B5000C701B6010E9411106B017C010E94E610C2
:101B60002B013C010E9412119B01AC01C701B6017F
:101B70000E9410106B017C012AE0B301A201CE018A
:101B80000E94520C080F191FBB2039F060E372E06D
:101B9000CE010E941D0C080F191F7B2C772041F1EC
:101BA00020E030E040E251E4C701B6010E94C811D4
:101BB0006B017C010E94E1104B01AA2497FCA094C8
:101BC000BA2C2AE030E0B501A401CE010E94AB0C92
:101BD000080F191FC501B4010E9414119B01AC012B
:101BE000C701B6010E9410106B017C017A94D6CF18
:101BF000C801DF91CF911F910F91FF90EF90DF907F
:101C0000CF90BF90AF909F908F907F906F905F909C
:101C10004F9008950C941F0D0F931F93CF93DF9354
:101C2000EC010E941F0D8C01CE010E943C0C800F24
:101C3000911FDF91CF911F910F91089580916A03B9
:101C400090E020916B03821B9109089520916B0312
:101C500080916A03281750F4E22FF0E0E459FC4F1A
:101C6000808190E02F5F20936B0308958FEF9FEFAB
:101C70000895E0916B0380916A03E81730F4F0E077
:101C8000E459FC4F808190E008958FEF9FEF089515
:101C90000895CF92DF92EF92FF920F931F93CF930D
:101CA000DF937C01CB018A0120914703222389F035
:101CB000EB016B01C40ED51ECC15DD0569F06991F1
:101CC000D701ED91FC910190F081E02DC7010995BC
:101CD000F3CF642F0E94B90EC801DF91CF911F91FD
:101CE0000F91FF90EF90DF90CF900895CF93DF9307
:101CF0001F92CDB7DEB76983209147032223D1F02D
:101D000020914803203240F021E030E0FC01338391
:101D1000228380E090E015C080914903E82FF0E035
:101D2000E65BFC4F998190838F5F8093490380939A
:101D3000480305C061E0CE0101960E94B90E81E022
:101D400090E00F90DF91CF910895FC0113821282F1
:101D500048EE53E060E070E0448355836683778308
:101D600086E392E09183808308958BE393E00C9463
:101D7000A50E613298F42091F903243089F4609320
:101D8000AE03FC0180EB93E0DC012A2F281B261711
:101D900018F421912D93F9CF80E0089581E0089502
:101DA00082E0089585ED8093BC008091BC0084FDA5
:101DB000FCCF1092F903089585EC8093BC0010923B
:101DC000F90308951F920F920FB60F9211242F93CB
:101DD0003F934F935F936F937F938F939F93AF93B3
:101DE000BF93EF93FF938091B900887F803609F409
:101DF0009CC068F5883209F45BC090F4803109F426
:101E000054C038F4882309F4F5C0883009F44DC073
:101E1000F5C0883109F44CC0803209F45DC0EEC0D1
:101E2000803409F468C048F4803309F455C088331D
:101E300009F0E4C080938C03A8C0803509F44FC03A
:101E4000883509F45DC0883409F0D8C0D5C0883918
:101E500009F4C6C0A8F4883709F467C038F4883696
:101E600009F463C0803709F460C0C8C0883809F439
:101E7000B7C0803909F45FC0803809F0BFC05BC0CB
:101E8000803B09F485C038F4803A09F466C0883A8A
:101E900009F47EC0B3C0803C09F4A6C0883C09F4B4
:101EA000A3C0883B09F489C0A9C08091F80310C081
:101EB0009091D1038091D003981770F5E091D103F0
:101EC00081E08E0F8093D103F0E0EE52FC4F8081D1
:101ED0008093BB0085EC85C080938C038DC0E0911E
:101EE000D10381E08E0F8093D1038091BB00F0E09D
:101EF000EE52FC4F80839091D1038091D0036DC04E
:101F0000E091D10381E08E0F8093D1038091BB00DB
:101F1000F0E0EE52FC4F80838091F70381116CC09A
:101F200081E08093F60384EA60C083E08093F90344
:101F300010928D03CFCF80918D03803208F050C076
:101F4000E0918D0381E08E0F80938D038091BB0023
:101F5000F0E0E257FC4F8083BDCF80918D0380324B
:101F600030F4E0918D03F0E0E257FC4F10820E94C4
:101F7000D20E60918D0370E0E091F203F091F303D3
:101F80008EE893E0099510928D030E94DC0E36C016
:101F900084E08093F9031092AF031092AE03E091B6
:101FA000F403F091F50309958091AE03811105C00A
:101FB00081E08093AE031092B003E091AF0381E023
:101FC0008E0F8093AF03F0E0E055FC4F808180934B
:101FD000BB009091AF038091AE03981708F47ACFBD
:101FE00085E88093BC000AC085EC8093BC00109209
:101FF000F90304C010928C030E94D20EFF91EF915E
:10200000BF91AF919F918F917F916F915F914F9110
:102010003F912F910F900FBE0F901F90189508952C
:102020005058BB27AA270ED075C166D130F06BD1AE
:1020300020F031F49F3F11F41EF45BC10EF4E095E3
:10204000E7FB51C1E92F77D180F3BA176207730715
:102050008407950718F071F49EF58FC10EF4E09592
:102060000B2EBA2FA02D0B01B90190010C01CA0152
:10207000A0011124FF27591B99F0593F50F4503EFD
:1020800068F11A16F040A22F232F342F4427585FEF
:10209000F3CF469537952795A795F0405395C9F707
:1020A0007EF41F16BA0B620B730B840BBAF09150BF
:1020B000A1F0FF0FBB1F661F771F881FC2F70EC05E
:1020C000BA0F621F731F841F48F487957795679531
:1020D000B795F7959E3F08F0B3CF9395880F08F01A
:1020E0009927EE0F979587950895D9D008F481E048
:1020F00008950CD00FC107D140F0FED030F021F48C
:102100005F3F19F0F0C0511139C1F3C014D198F3F9
:102110009923C9F35523B1F3951B550BBB27AA2768
:1021200062177307840738F09F5F5F4F220F331FDA
:10213000441FAA1FA9F333D00E2E3AF0E0E830D0A6
:1021400091505040E695001CCAF729D0FE2F27D0A9
:10215000660F771F881FBB1F261737074807AB0777
:10216000B0E809F0BB0B802DBF01FF2793585F4FEC
:102170002AF09E3F510568F0B6C000C15F3FECF306
:10218000983EDCF3869577956795B795F7959F5FB1
:10219000C9F7880F911D9695879597F90895E1E005
:1021A000660F771F881FBB1F621773078407BA0764
:1021B00020F0621B730B840BBA0BEE1F88F7E095BF
:1021C000089504D06894B111D9C00895BCD088F0A6
:1021D0009F5790F0B92F9927B751A0F0D1F0660F13
:1021E000771F881F991F1AF0BA95C9F712C0B1302E
:1021F00081F0C3D0B1E00895C0C0672F782F882741
:10220000B85F39F0B93FCCF3869577956795B3956C
:10221000D9F73EF490958095709561957F4F8F4FDB
:102220009F4F0895E89409C097FB3EF490958095E0
:10223000709561957F4F8F4F9F4F9923A9F0F92F8C
:1022400096E9BB279395F695879577956795B7950A
:10225000F111F8CFFAF4BB0F11F460FF1BC06F5FF0
:102260007F4F8F4F9F4F16C0882311F096E911C002
:10227000772321F09EE8872F762F05C0662371F023
:1022800096E8862F70E060E02AF09A95660F771F37
:10229000881FDAF7880F9695879597F90895990F13
:1022A0000008550FAA0BE0E8FEEF16161706E80720
:1022B000F907C0F012161306E407F50798F0621B41
:1022C000730B840B950B39F40A2661F0232B242B16
:1022D000252B21F408950A2609F4A140A6958FEF35
:1022E000811D811D089597F99F6780E870E060E087
:1022F00008959FEF80EC089500240A94161617069F
:1023000018060906089500240A94121613061406E6
:1023100005060895092E0394000C11F4882352F049
:10232000BB0F40F4BF2B11F460FF04C06F5F7F4F01
:102330008F4F9F4F089557FD9058440F551F59F0E8
:102340005F3F71F04795880F97FB991F61F09F3FA2
:1023500079F087950895121613061406551FF2CFCB
:102360004695F1DF08C0161617061806991FF1CF1B
:1023700086957105610508940895E894BB27662742
:102380007727CB0197F908958ADF08F48FEF089536
:102390000BD0C0CFB1DF28F0B6DF18F0952309F0DD
:1023A000A2CFA7CF1124EACFC6DFA0F3959FD1F328
:1023B000950F50E0551F629FF001729FBB27F00DF3
:1023C000B11D639FAA27F00DB11DAA1F649F662748
:1023D000B00DA11D661F829F2227B00DA11D621F97
:1023E000739FB00DA11D621F839FA00D611D221F51
:1023F000749F3327A00D611D231F849F600D211D35
:10240000822F762F6A2F11249F5750408AF0E1F0D7
:1024100088234AF0EE0FFF1FBB1F661F771F881F20
:1024200091505040A9F79E3F510570F05CCFA6CF68
:102430005F3FECF3983EDCF3869577956795B7950B
:10244000F795E7959F5FC1F7FE2B880F911D969535
:10245000879597F9089523DF880B990B0895AA1B98
:10246000BB1B51E107C0AA1FBB1FA617B70710F07F
:10247000A61BB70B881F991F5A95A9F780959095B1
:10248000BC01CD01089597FB072E16F4009407D0E8
:1024900077FD09D00E942F1207FC05D03EF49095DD
:1024A00081959F4F0895709561957F4F0895A1E2A2
:1024B0001A2EAA1BBB1BFD010DC0AA1FBB1FEE1FBE
:1024C000FF1FA217B307E407F50720F0A21BB30B09
:1024D000E40BF50B661F771F881F991F1A9469F785
:1024E00060957095809590959B01AC01BD01CF01E1
:1024F0000895052E97FB1EF400940E94901257FD3C
:1025000007D00E94571207FC03D04EF40C9490128F
:1025100050954095309521953F4F4F4F5F4F08950F
:1025200090958095709561957F4F8F4F9F4F08953F
:10253000EE0FFF1F0590F491E02D0994F894FFCF62
:102540000000FA03800040022B873D00008040011C
:10255000526F746174696F6E2050686F746F636539
:102560006C6C20696E74657272757074656400536A
:10257000746F702050686F746F63656C6C20696E47
:10258000746572727570746564006D6561737572DF
:102590006564206E6F7720286D41293A20004D65D3
:1025A000617375726564206176672E20616674655B
:1025B0007220312073656320286D41293A20006321
:1025C0006F756E746572636C6F636B7769736500AA
:1025D0004661696C656420746F2072656164206671
:1025E000726F6D204448542073656E736F722100C2
:1025F00048756D69646974793A200054656D706539
:102600007261747572653A20002A432025090046DC
:1026100065656C73206C696B653A20002A43005431
:1026200068697320697320726F746174696F6E4397
:102630006F6E74726F6C6C657200457374696D6156
:102640007465206F666673657420286D56293A207C
:102650000000000000890AF50B0B0A240A160A671D
:102660000A0D0A006E616E00696E66006F76660084
:102670002E0000000000760E490E1E0E260E390EAA
:02268000480E02
:00000001FF
